:400000000080002011000000010200000102000080B500AF47F2BC63C4F2000344F2FA62C4F2000212681A6000F0EEF810B5054C237833B9044810B10448AFF300800121C6
:40004000217010BD9081FF1F00000000C845000008B5064B1BB106480649AFF300800648016811B1054A02B1904708BD00000000C84500009481FF1F0881FF1F000000004F
:4000800080B5A4B000AF4FF000004FF0000100F017FC03F053F94FF001004FF0000103F063F944F2CC50C0F2000003F099F962B600BF00F023FE0346002BFAD001F022F8BE
:4000C0004FF000037B6407F148024FF03C0310464FF000011A4603F068FE4FF000037B6007F108024FF03C0310464FF000011A4603F05BFE00E000BF4FF0320003F028FCCA
:400100004FF000004FF0000103F02EF944F2D450C0F2000003F064F901F0C2F80346002BE9D007F10403184601F0EEF8034687F88F3007F18603184600F0A4FBC7F8880082
:400140004FF000004FF0000103F00EF944F2E050C0F2000003F044F9B7F886301BB2002B06DB44F2E850C0F2000003F039F90EE044F2EC50C0F2000003F032F9B7F88630A6
:400180009BB2C3F100039BB29BB2A7F88630B7F886309BB2184603F02FFB44F2F050C0F2000003F01DF94FF0070003F039F944F2F450C0F2000003F013F94FF001004FF0D9
:4001C000000103F0D1F83B79184603F015FBB7F886301BB207F14402104644F2F851C0F200011A4603F0EAFD00BF01F073F80346002BFAD007F14403184600F0B1FF7AE704
:4002000080B400AFFEE700BF80B586B000AF40F20103C0F200037B6144F66C03C0F200033B6140F20103C0F200037B6144F66C03C0F200033B613BE03B691B68FB603B695A
:400240005B68BB603B699B683B604FF000037B600FE0FB681A68BB681A60BB6803F10403BB60FB6803F10403FB607B6803F104037B607A683B689A42EBD13B69DB683B6086
:400280004FF000037B600BE0BB684FF000021A60BB6803F10403BB607B6803F104037B607A683B689A42EFD13B6903F110033B617B69002B0CBF00230123DBB27A6902F17A
:4002C000FF327A61002BB7D103F040FDFFF7D8FEFEE700BF80B582B000AF4EF60C53CEF200034FF48062C0F2FA521A604EF61453CEF200034EF61452CEF20002126842F4FC
:4003000000721A604FF000037B6019E07B68032B07D840F20003C0F200037A6853F8223003E040F20123C0F2000348F20002C1F6FF72796842F821307B6803F101037B60EE
:400340007B682F2BE2D947F2BC63C4F200031B78DAB248F20413C1F6FF731A704EF60853CEF2000348F20002C1F6FF721A6000F029F948F20013C1F6FF734FF000021A60CE
:4003800007F10807BD4680BD80B582B000AF7860396078684FF000013A6803F006FD07F10807BD4680BD00BF80B584B000AFF860B9607A60F868B9687A6803F0EDFC07F117
:4003C0001007BD4680BD00BF80B483B000AF0346FB71FEE780B487B000AF786039604FF000033B614FF000037B612CE07B694FEA83037A68D3181B68BB60BB68FB73BB68E2
:4004000023F0FF03BB6017E03B694FEA43033A68D3181B781A46BB68D3183A694FEA420239688A1852781A703B6903F101033B61FB7B03F1FF33FB73FB7B002BE4D17B69B1
:4004400003F101037B617B690B2BCFD907F11C07BD4680BC704700BF80B582B000AF4FF48643C4F200034FF006021A704FF48443C4F200034FF052021A7044F2A163C4F29A
:40048000000340F20F12C4F600121278D2B21A7044F22223C4F200034FF4E2621A8044F22023C4F2000341F251221A804FF00003FB704FF019037B6019E0FB784FEA4303ED
:4004C000DAB244F22523C4F200031B78DBB203F00103DBB21343DBB203F00303FB704FF4F07003F015FA7B6803F1FF337B607B68002B02D0FB78032BDFD17B68002B03D1B2
:400500004FF00300FFF760FF44F20403C4F200034FF480721A8044F20403C4F200034FF007021A7044F20603C4F200034FF000021A7044F20803C4F200034FF048021A70C7
:4005400044F20403C4F200034FF000021A7044F20903C4F200034FF000021A7044F20103C4F200034FF002021A7007F10807BD4680BD00BF80B483B000AF40F2CF13C4F64A
:4005800000131B78FB7145F66E03C4F20003FA7902F00702D2B21A7045F66F03C4F20003FA794FEA1212D2B21A7045F67603C4F200034FF044021A7007F10C07BD4680BC3E
:4005C000704700BF80B582B000AF72B644F2E863C4F2000344F2E862C4F200021278D2B242F00402D2B21A704FF00003FB7119E0FA7913464FEA43039B184FEA430344F227
:40060000FC52C0F200029B183B603B681A683B689B889BB210461946FFF7B6FEFB7903F10103FB71FB79062BE2D94FF090404FF03001C4F60001FFF7CDFE45F20303C4F2AD
:40064000010345F20302C4F201021278D2B242F00202D2B21A7045F21303C4F2010345F21302C4F201021278D2B242F00202D2B21A7044F2A033C4F2000344F2A032C4F251
:4006800000021278D2B242F04002D2B21A7044F2C233C4F2000344F2C232C4F200021278D2B242F01002D2B21A7045F20210C4F200004FF06C01C4F600014FF00802FFF7DD
:4006C00073FE45F2F010C4F200004FF07401C4F600014FF00A02FFF767FE44F22233C4F2000344F22232C4F200021278D2B242F00802D2B21A704FF49043C4F200034FF09B
:4007000001021A70FFF7A8FE4FF49043C4F200034FF0C1021A70FFF72DFF44F2B030C4F2000044F2A031C4F200014FF00E02FFF73BFE07F10807BD4680BD00BF80B582B09E
:4007400000AF4FF0FF337B6003F090F903F032FA0346002B0CD14FF0010003F0E5F90346072B02D14FF007037B6003F067FA02E04FF004037B607B68184607F10807BD466D
:4007800080BD00BF80B584B000AF786044F22273C4F200031B78DBB203F00203002B2FD144F22273C4F200031B78DBB24FEA9303DBB2002B20D107F1080318464FF00201C7
:4007C00003F080F90346022B12D13B7A012B04D17B7A1A467B681A8006E07B7AC3F100039BB29AB27B681A804FF00003FB600AE04FF0FF33FB6006E04FF00703FB6002E045
:400800004FF01003FB60FB68072B01D003F016FAFB68184607F11007BD4680BD80B584B000AF7860FFF78AFFB860BB68072B22D14FF4FA53FB811BE0BB68072B09D044F258
:400840002273C4F200031B78DBB203F00203002B11D1BB68072B03D17868FFF793FFB8604FF00A0003F098F8FB89A3F10A03FB81FB89002BE0D1BB68184607F11007BD46FC
:4008800080BD00BF80B584B000AF78604FF00203FB720AE07868FFF7C1FFF860FB68002B07D1FB7A03F1FF33FB72FB7A002BF1D100E000BFFB68184607F11007BD4680BD44
:4008C00080B582B000AF02460B46FA71BB7148F2AC13C1F6FF731B78002B08D100F012F848F2AC13C1F6FF734FF001021A70FA79BB791046194600F021F907F10807BD46A1
:4009000080BD00BF80B582B000AF03F00BF80346FB7144F2A533C4F2000344F2A532C4F200021278D2B242F00102D2B21A7044F2B533C4F2000344F2B532C4F200021278E7
:40094000D2B242F00102D2B21A7046F29D03C4F200034FF001021A7046F20903C4F200034FF002021A7046F21003C4F2000346F21002C4F200021278D2B202F07F02D2B27E
:400980001A704FF0000003F007F844F29433C4F2000344F29432C4F200021278D2B222F00602D2B21A7046F21203C4F2000346F21202C4F200021278D2B222F02002D2B20C
:4009C0001A7044F29433C4F2000344F29432C4F200021278D2B242F00102D2B21A704FF0010002F0D9FF4FF0280002F0D5FF45F2F813C4F2000345F2F812C4F200021278FD
:400A0000D2B202F07F02D2B21A7045F2F813C4F2000345F2F812C4F200021278D2B222F04002D2B21A7044F29433C4F2000344F29432C4F200021278D2B242F00202D2B21B
:400A40001A704FF0020002F0A7FF44F29433C4F2000344F29432C4F200021278D2B242F00402D2B21A7046F28403C4F200034FF000021A7046F28503C4F200034FF0000258
:400A80001A70FB79184602F051FF4FF0170041F6DD41C0F2000102F093FF4FF017004FF0070102F0BDFF4FF0150041F6D141C0F2000102F085FF4FF015004FF0070102F018
:400AC000AFFF4FF0180041F25D31C0F2000102F077FF4FF018004FF0070102F0A1FF4FF0000041F66D31C0F2000102F069FF4FF000004FF0070102F093FF4FF0010041F643
:400B0000E131C0F2000102F05BFF4FF001004FF0070102F085FF4FF0020041F65541C0F2000102F04DFF4FF002004FF0070102F077FF07F10807BD4680BD00BF80B582B04B
:400B400000AF02460B46FA71BB714FF46143CEF200034FF400021A604FF46143CEF200034FF080721A604FF46143CEF200034FF001021A604FF46143CEF200034FF0020285
:400B80001A604FF46143CEF200034FF004021A6048F2D613C1F6FF734FF000021A70BB79002B02D0012B08D00FE046F20903C4F200034FF002021A700FE046F20903C4F264
:400BC00000034FF003021A7007E046F20903C4F200034FF003021A7000BF48F2D113C1F6FF73FA791A7048F2EF13C1F6FF734FF000021A7048F2E413C1F6FF734FF00002A4
:400C00001A7048F2EC13C1F6FF734FF000021A7048F2EE13C1F6FF734FF000021A7048F2F113C1F6FF734FF000021A7048F2D013C1F6FF734FF000021A7046F22803C4F272
:400C400000034FF003021A7046F20803C4F200034FF080021A704FF0010002F059FE46F21203C4F200034FF004021A7007F10807BD4680BD80B400AF48F2D613C1F6FF7388
:400C80004FF000021A7048F2EF13C1F6FF734FF000021A7048F2E413C1F6FF734FF000021A7048F2EC13C1F6FF734FF000021A7048F2EE13C1F6FF734FF000021A7048F27E
:400CC000F113C1F6FF734FF000021A7048F2D013C1F6FF734FF000021A7046F22803C4F200034FF003021A7046F20803C4F200034FF080021A70BD4680BC704780B400AFE1
:400D000048F2EF13C1F6FF731B78DBB21846BD4680BC704780B485B000AF0346FB714FF00003FB81FB79002B27D0FB79082B24D8FB7903F1FF33DBB24FEA03137B737A7BBD
:400D400046F20C03C4F20003D3181B78DBB203F00F03FB81FB894FEA03239AB2797B46F20D03C4F20003CB181B78DBB213439BB2FB81FB89A3F10203FB81FB89184607F12E
:400D80001407BD4680BC704790B484B000AF396013460246FA71BB80FB79002B00F09680FB79082B00F29280FB7903F1FF33DBB24FEA03137B737A7B46F28803C4F20003F6
:400DC000D318BB60B888F97948F2F412C1F6FF720B464FEA43035B184FEA8303D318DB889BB2C3F50073984210D9F97948F2F412C1F6FF720B464FEA43035B184FEA83036C
:400E0000D318DB889BB2C3F50073BB807A7B46F20C03C4F20003D3181846BB884FEA13239BB2DCB2F97948F2F412C1F6FF720B464FEA43035B184FEA8303D318DB78DBB23F
:400E40002343DBB203707A7B46F20D03C4F20003D318BA88D2B21A703B68002B11D04FF00003FB8109E0FB893A68D3181A78BB681A70FB8903F10103FB81FA89BB889A429B
:400E8000F1D3F97948F2F412C1F6FF720B464FEA43035B184FEA8303D3184FF000025A707A7B46F20E03C4F20003D3181846F97948F2F412C1F6FF720B464FEA43035B183F
:400EC0004FEA8303D3185B79DBB2037007F11007BD4690BC704700BF80B586B000AF396013460246FA71BB80FB79002B37D0FB79082B34D83B68002B31D0FB7903F1FF33E4
:400F0000DBB24FEA03137B757A7D46F28803C4F20003D3183B61FB791846FFF7FBFE0346FB81BA88FB899A4201D9FB89BB804FF00003FB820AE0FB8A3A68D3183A69127842
:400F4000D2B21A70FB8A03F10103FB82FA8ABB889A42F0D3FB79184600F00AF802E04FF00003BB80BB88184607F11807BD4680BD80B485B000AF0346FB71FB79002B2ED07E
:400F8000FB79082B2BD8FB7903F1FF33DBB24FEA0313FB73F97948F2F412C1F6FF720B464FEA43035B184FEA8303D3184FF000025A70FA7B46F20E03C4F20003D318184611
:400FC000F97948F2F412C1F6FF720B464FEA43035B184FEA8303D3185B79DBB2037007F11407BD4680BC704780B582B000AF4FF00003FB714FF4C043C4F200031B78DBB26A
:40100000DBB25BB2002B1EDA46F20103C4F200031B78DBB2212B15D148F2D813C1F6FF734FF007021A8048F2D813C1F6FF7348F20C12C1F6FF725A6000F078FB0346FB71DC
:4010400000BF58E057E04FF4C043C4F200031B78DBB2DBB25BB2002B4DDB46F20103C4F200031B78DBB2202B02D0222B23D041E048F2D813C1F6FF734FF007021A8048F239
:40108000D813C1F6FF7348F20C12C1F6FF725A6048F2CC13C1F6FF731B78DBB243F00103DAB248F2CC13C1F6FF731A7000F0E2FB0346FB711FE046F20203C4F200031B78E7
:4010C000DBB21A4648F2CA13C1F6FF731A8048F2CC13C1F6FF731B78DBB243F00203DAB248F2CC13C1F6FF731A7000F099FC0346FB7100E000BFFB79184607F10807BD4682
:4011000080BD00BF80B500AF48F2CC13C1F6FF734FF000021A7048F2C813C1F6FF731B78DBB21846FFF724FF80BD00BF80B485B000AF78604FF00003FB8103E0FB8903F1E8
:401140000103FB81FB897A68D3181B78002BF5D1FB89184607F11407BD4680BC704700BF80B584B000AF78604FF00003BB817868FFF7DCFF0346FB8148F2C913C1F6FF734D
:401180001B78DBB2194648F2F412C1F6FF720B464FEA43035B184FEA8303D31803F108031B889BB2FA899A4216D948F2C913C1F6FF731B78DBB2194648F2F412C1F6FF72F8
:4011C0000B464FEA43035B184FEA8303D31803F108031B889BB200E0FB897B8148F2C913C1F6FF731B78D9B2BB897A68D2187B89084611461A46FFF7C7FDFA897B89D31A0F
:40120000FB81FB89002B18D148F2C913C1F6FF731B78DBB2194648F2F412C1F6FF720B464FEA43035B184FEA8303D31803F108031B889BB27A899A422AD1BA897B89D3188C
:40124000BB8100BF48F2C913C1F6FF731B78DBB2194648F2F412C1F6FF720B464FEA43035B184FEA8303D3185B78DBB2002BE9D0FB89002B0CD148F2C913C1F6FF731B78BE
:40128000DBB218464FF000014FF00002FFF77CFDFB89002B7FF470AF07F11007BD4680BD80B400AF48F2C813C1F6FF731B78DBB2194648F2F412C1F6FF720B464FEA4303EB
:4012C0005B184FEA8303D3185B78DBB21846BD4680BC704780B400AF48F2C913C1F6FF731B78DBB2194648F2F412C1F6FF720B464FEA43035B184FEA8303D3185B78DBB2C7
:401300001846BD4680BC704780B582B000AF786048F2C813C1F6FF731B78D8B248F2C813C1F6FF731B78DBB2194648F2F412C1F6FF720B464FEA43035B184FEA8303D318FE
:4013400003F108031B889BB279681A46FFF7C4FD0346184607F10807BD4680BD80B582B000AF46F22803C4F200031B78BB71BB7903F01003002B00F08C804FF00103FB7197
:40138000BB795BB2002B18DABB7903F00F03012B03D04FF00003FB7122E000F07FF848F2ED13C1F6FF731B78DBB2DBB25BB2002B16DA4FF00003FB7112E0BB7903F040033E
:4013C000002B02D000F0BEF80AE0BB7903F02003002B02D000F0DEF802E04FF00003FB71FB79002B55D046F22803C4F200031B78BB71BB795BB2002B4BDB48F26223C1F61C
:40140000FF731B78DAB248F2F013C1F6FF731B78DBB21343BB7146F22903C4F20003BA791A7046F22903C4F200031B78DBB2BA799A422ED148F2ED13C1F6FF731B78FB718C
:4014400046F22803C4F200031B78DBB223F07F03BB71BB79002B13D146F22803C4F2000348F2ED12C1F6FF721278D2B21A7046F22803C4F200031B78DBB203F00F03FB716A
:4014800048F2ED13C1F6FF731B78DBB2FA799A42D0D107F10807BD4680BD00BF80B582B000AF46F22803C4F200031B78FB7146F22803C4F20003FA791A7046F22803C4F250
:4014C00000031B78FB71FB795BB2002B06DA48F2ED13C1F6FF73FA791A702EE04FF0020000F0F4FA4FF4C043C4F200031B78DBB203F06003202B08D0402B0BD0002B0ED1E9
:4015000000F0F2FB0346FB710DE002F0CBFB0346FB7108E001F07EFE0346FB7103E04FF00003FB7100BFFB79002B06D148F2ED13C1F6FF734FF003021A7007F10807BD46B4
:4015400080BD00BF80B500AF48F2D613C1F6FF731B78DBB2062B1AD801A252F823F000BF8F1500008F1500007D1500008F150000831500008F1500008915000000F04AF9B2
:4015800006E000F037FA03E000F06EFA00E000BF80BD00BF80B500AF48F2D613C1F6FF731B78DBB2062B23D801A252F823F000BFF1150000F1150000CD150000F11500001F
:4015C000D3150000F1150000D915000000F028F90FE000F091F90CE04FF0030000F076FA48F2ED13C1F6FF734FF003021A7000E000BF80BD80B483B000AF4FF00003FB7136
:4016000048F2D013C1F6FF731B78DBB21A4648F2D213C1F6FF731B889BB2D3189AB248F2D213C1F6FF731A802BE0FB7903F1804303F5C0431A4648F2D813C1F6FF735B68F1
:401640001B78DBB2137048F2D813C1F6FF735B6803F1010248F2D813C1F6FF735A60FB7903F10103FB7148F2D813C1F6FF731B889BB203F1FF339AB248F2D813C1F6FF73E1
:401680001A8048F2D813C1F6FF731B889BB2002B02D0FB79072BC8D948F2D013C1F6FF731B78DBB2082B02D0FB79002B1ED048F26223C1F6FF731B78DBB283F07F036FEAC0
:4016C0000303DAB248F26223C1F6FF731A7048F2ED13C1F6FF734FF00F021A7048F2D613C1F6FF734FF002021A700DE048F2ED13C1F6FF734FF002021A7048F2D613C1F699
:40170000FF734FF002021A7048F2D013C1F6FF73FA791A7048F2F013C1F6FF73FA791A7007F10C07BD4680BC704700BF80B582B000AF48F2D813C1F6FF731B889BB2002B85
:4017400002D100F03BF832E048F2D613C1F6FF734FF002021A7048F26223C1F6FF734FF000021A7000F0DEF946F20703C4F200031B78DBB24FEA03239AB246F20603C4F211
:4017800000031B78DBB213439BB2FB8048F2D813C1F6FF731B889BB2FA889A4205D248F2D813C1F6FF73FA881A80FFF723FF4FF00103184607F10807BD4680BD80B400AF28
:4017C00048F2D613C1F6FF734FF002021A7048F26223C1F6FF734FF080021A7048F2ED13C1F6FF734FF00F021A7048F2D013C1F6FF734FF000021A7048F2F013C1F6FF73E9
:401800004FF000021A704FF001031846BD4680BC704700BF80B500AFFFF7ECFE80BD00BF80B500AF48F2D013C1F6FF731B78DBB21A4648F2D213C1F6FF731B889BB2D318FA
:401840009AB248F2D213C1F6FF731A8048F2D613C1F6FF734FF000021A704FF0010000F035F948F2ED13C1F6FF734FF003021A7080BD00BF80B582B000AF48F2D613C1F6A8
:40188000FF734FF004021A7048F26223C1F6FF734FF080021A7000F045F946F20703C4F200031B78DBB24FEA03239AB246F20603C4F200031B78DBB213439BB2FB8048F24E
:4018C000D813C1F6FF731B889BB2FA889A4205D248F2D813C1F6FF73FA881A8048F2ED13C1F6FF734FF00B021A704FF00103184607F10807BD4680BD80B483B000AF4FF0CF
:401900000003BB7146F22903C4F200031B78DBB203F00F03DBB2A3F10203FB71FB799AB248F2D213C1F6FF731B889BB2D3189AB248F2D213C1F6FF731A802EE048F2D81360
:40194000C1F6FF735A68BB7903F1804303F5C0431B78DBB2137048F2D813C1F6FF735B6803F1010248F2D813C1F6FF735A60BB7903F10103BB71FB7903F1FF33FB7148F24B
:40198000D813C1F6FF731B889BB203F1FF339AB248F2D813C1F6FF731A8048F2D813C1F6FF731B889BB2002B02D0FB79002BC5D148F2F013C1F6FF73FA791A7048F2622337
:4019C000C1F6FF731B78DBB283F07F036FEA0303DAB248F26223C1F6FF731A7048F2ED13C1F6FF734FF00B021A7007F10C07BD4680BC704780B500AF48F2D613C1F6FF73E2
:401A00004FF000021A704FF0010000F05FF848F2ED13C1F6FF734FF003021A7080BD00BF80B400AF48F2D613C1F6FF734FF006021A7048F2ED13C1F6FF734FF006021A70F3
:401A400048F26223C1F6FF734FF080021A7048F2F013C1F6FF734FF000021A704FF001031846BD4680BC704780B500AF48F2EE13C1F6FF731B78DBB2002B14D046F20803B1
:401A8000C4F2000348F2EE12C1F6FF721278D2B262F07F02D2B21A7048F2EE13C1F6FF734FF000021A7048F2D613C1F6FF734FF000021A704FF0010000F008F848F2ED136C
:401AC000C1F6FF734FF003021A7080BD80B483B000AF0346FB7148F2D813C1F6FF739B68002B19D048F2D813C1F6FF739B68FA791A7048F2D813C1F6FF739A6848F2D213C5
:401B0000C1F6FF731B889BB2538048F2D813C1F6FF734FF000029A6007F10C07BD4680BC704700BF80B400AF48F2D213C1F6FF734FF000021A8048F2D813C1F6FF739B6819
:401B4000002B0FD048F2D813C1F6FF739B684FF000021A7048F2D813C1F6FF739B684FF000025A80BD4680BC704700BF80B400AF46F20E03C4F200031B7848F2F413C1F6AE
:401B8000FF731B7BDBB203F00303012B0FD048F2F413C1F6FF73DB7BDBB283F07F036FEA0303DAB248F2F413C1F6FF73DA7348F2F413C1F6FF734FF001025A7346F20B03E9
:401BC000C4F2000346F20B02C4F200021278D2B222F00102D2B21A70BD4680BC704700BF80B400AF46F21E03C4F200031B7848F2F413C1F6FF731B7EDBB203F00303012B0C
:401C00000FD048F2F413C1F6FF73DB7EDBB283F07F036FEA0303DAB248F2F413C1F6FF73DA7648F2F413C1F6FF734FF001025A7646F20B03C4F2000346F20B02C4F2000263
:401C40001278D2B222F00202D2B21A70BD4680BC704700BF80B400AF46F22E03C4F200031B7848F2F413C1F6FF7393F82430DBB203F00303012B11D048F2F413C1F6FF739F
:401C800093F82730DBB283F07F036FEA0303DAB248F2F413C1F6FF7383F8272048F2F413C1F6FF734FF0010283F8252046F20B03C4F2000346F20B02C4F200021278D2B233
:401CC00022F00402D2B21A70BD4680BC704700BF80B400AFBD4680BC704700BF80B500AFFEF7C8FF80BD00BF80B586B000AF4FF00003FB754FF000033B6148F2D813C1F64F
:401D0000FF734FF000021A804FF4C043C4F200031B78DBB2DBB25BB2002B80F2948146F20103C4F200031B78DBB20A2B00F2F78201A252F823F000BF0B1F00001F2300000B
:401D40001F2300001F2300001F2300001F230000651D00001F230000E11F00001F2300000B20000046F20303C4F200031B78DBB2012B15D101F04CF8B860BB685A6848F295
:401D8000D813C1F6FF735A6048F2D813C1F6FF734FF012021A80FFF7C9FC0346FB75C0E246F20303C4F200031B78DBB2022B36D146F20203C4F200031B78DBB2184600F055
:401DC000F7FFB860BB68002B00F0AB82BB685A6848F2D813C1F6FF735A6048F2D813C1F6FF735B6803F103031B78DBB24FEA03239AB248F2D813C1F6FF735B6803F102039D
:401E00001B78DBB213439BB29AB248F2D813C1F6FF731A80FFF78AFC0346FB7581E246F20303C4F200031B78DBB2032B68D14FF00003FB7344F2D463C0F200033B610AE03D
:401E40003B691B78FB71FB793A69D3183B61FB7B03F10103FB7346F20203C4F200031B78DBB2FA7B9A4204D23B691B78DBB2002BE6D146F20203C4F200031B78DBB2EE2B33
:401E800004D144F2D473C0F200033B6146F20203C4F200031B78DBB2002B17D046F20203C4F200031B78DAB244F27C63C0F200031B7C9A420AD148F26820C1F6FF7000F052
:401EC0003DFA48F26823C1F6FF733B613B691B78DBB2002B00F025823B691B78DBB21A4648F2D813C1F6FF731A8048F2D813C1F6FF733A695A60FFF719FC0346FB7510E22E
:401F000001F0D0FE0346FB750BE24FF4C043C4F200031B78DBB203F00303002B37D0022B5CD148F2D813C1F6FF734FF002021A8046F20403C4F200031B78DBB203F07F01E2
:401F400048F2F412C1F6FF720B464FEA43035B184FEA8303D3189B78DAB248F2B013C1F6FF731A7048F2B013C1F6FF734FF000025A7048F2D813C1F6FF7348F2B012C1F68B
:401F8000FF725A60FFF7D2FB0346FB7527E048F2D813C1F6FF734FF002021A8048F2F113C1F6FF731B78DAB248F2B013C1F6FF731A7048F2B013C1F6FF734FF000025A70E1
:401FC00048F2D813C1F6FF7348F2B012C1F6FF725A60FFF7ABFB0346FB7500E000BFA7E148F2D813C1F6FF734FF001021A8048F2D813C1F6FF7348F2EF12C1F6FF725A60A4
:40200000FFF794FB0346FB7592E148F2D813C1F6FF734FF001021A8046F20403C4F200031B78DBB21A4648F26023C1F6FF73D21848F2D813C1F6FF735A60FFF777FB0346C4
:40204000FB7500BF74E146F20103C4F200031B78DBB203F1FF330A2B00F2658101A252F823F000BF7F210000272300004F22000027230000912000002723000027230000EB
:4020800027230000B1200000272300002521000046F20203C4F200031B78DAB248F2EE13C1F6FF731A70FFF7BBFC0346FB753FE146F20203C4F200031B78BB71BB79002BD8
:4020C00007D0BB7903F1FF33DBB2184600F070FEB860BB79002B02D0BB68002B03D1BB79002B40F0228148F2EF13C1F6FF731B78DBB2BA799A4210D048F2EF13C1F6FF73F0
:40210000BA791A7048F2EC13C1F6FF734FF001021A704FF0010000F067FAFFF781FC0346FB7502E101F02EF80346002B00F0FF8046F20403C4F200031B787B7148F2E41372
:40214000C1F6FF737A791A7048F2EC13C1F6FF734FF001021A7000F081FC7A79797948F26023C1F6FF735B5CD9B248F2D413C1F6FF739954FFF754FC0346FB75D7E04FF4E1
:40218000C043C4F200031B78DBB203F00303012B2BD0012B0ED3022B52D146F20203C4F200031B78DBB2002B4BD100F009FF0346FB7546E046F20203C4F200031B78DBB27C
:4021C000012B40D148F2F113C1F6FF731B78DBB223F00203DAB248F2F113C1F6FF731A70FFF71EFC0346FB752DE046F20403C4F200031B78DBB2012B27D846F20403C4F278
:4022000000031B78DBB21A46194648F26423C1F6FF735B5CD9B246F20203C4F200031B78DBB26FEA0303DBB20B40D9B248F26423C1F6FF739954FFF7F3FB0346FB7504E060
:4022400004E000BF02E000BF00E000BF70E04FF4C043C4F200031B78DBB203F00303012B2BD0012B0ED3022B52D146F20203C4F200031B78DBB2002B4BD100F009FE0346F2
:40228000FB7546E046F20203C4F200031B78DBB2012B40D148F2F113C1F6FF731B78DBB243F00203DAB248F2F113C1F6FF731A70FFF7B6FB0346FB752DE046F20403C4F297
:4022C00000031B78DBB2012B27D846F20403C4F200031B78DBB21A46194648F26423C1F6FF735B5CD9B246F20203C4F200031B78DBB26FEA0303DBB20B40D9B248F26423F4
:40230000C1F6FF739954FFF78BFB0346FB7504E004E000BF02E000BF00E000BF08E000BF06E000BF04E000BF02E000BF00E000BFFB7D184607F11807BD4680BD90B488B0B3
:4023400000AF78604FF00003BB7744F22863C0F2000307F10C040FCB84E80F007B68002B3AD07B684FF022021A707B6803F101034FF003021A704FF00203FB7729E0BB7F05
:4023800003F1924303F580731B787B77BB7F03F10103BB77FB7F7A68D3187A7F4FEA1212D2B207F120018A1812F8142C1A70FB7F03F102037A68D3187A7F02F00F0207F19C
:4023C00020018A1812F8142C1A70FB7F03F10403FB77FB7F212BD2D907F12007BD4690BC704700BF80B483B000AF4FF00103FB714FF00003BB71E5E0BB7903F1804303F52F
:40240000C1434FF00C021A70F97948F2F412C1F6FF720B464FEA43035B184FEA8303D3185B79DBB2002B25D0F97948F2F412C1F6FF720B464FEA43035B184FEA8303D318B2
:402440001B79DBB2DBB25BB2002B09DABA7946F20E03C4F20003D3184FF00C021A7012E0BA7946F20E03C4F20003D3184FF008021A7008E0BA7946F20E03C4F20003D318AF
:402480004FF080021A70BA7946F20C03C4F20003D3181846F97948F2F412C1F6FF720B464FEA43035B184FEA8303D31803F108031B889BB24FEA13239BB2DBB20370BA79B0
:4024C00046F20D03C4F20003D3181846F97948F2F412C1F6FF720B464FEA43035B184FEA8303D31803F108031B889BB2DBB20370BA7946F28603C4F20003D3181846F97974
:4025000048F2F412C1F6FF720B464FEA43035B184FEA8303D318DB889BB2DBB20370BA7946F28703C4F20003D3181846F97948F2F412C1F6FF720B464FEA43035B184FEA49
:402540008303D318DB889BB24FEA13239BB2DBB20370BA7946F28403C4F20003D3181846F97948F2F412C1F6FF720B464FEA43035B184FEA8303D318DB889BB2DBB2037013
:40258000BA7946F28503C4F20003D3181846F97948F2F412C1F6FF720B464FEA43035B184FEA8303D318DB889BB24FEA13239BB2DBB20370FB7903F10103FB71BB7903F1F3
:4025C0001003BB71BB795BB2002BBFF615AF46F20A03C4F200034FF0FF021A7007F10C07BD4680BC704700BF80B588B000AF0346FB714FF000037B834FF00003FB7770E01A
:40260000F97F48F2F412C1F6FF720B464FEA43035B184FEA8303D3184FF000021A70F97F48F2F412C1F6FF720B464FEA43035B184FEA8303D3184FF000029A70F97F48F238
:40264000F412C1F6FF720B464FEA43035B184FEA8303D3184FF000025A70F97F48F2F412C1F6FF720B464FEA43035B184FEA8303D3184FF00002DA70F97F48F2F412C1F66D
:40268000FF720B464FEA43035B184FEA8303D3184FF000025A71F97F48F2F412C1F6FF720B464FEA43035B184FEA8303D31803F108034FF000021A80F97F48F2F412C1F69A
:4026C000FF720B464FEA43035B184FEA8303D31803F108034FF000029A70FB7F03F10103FB77FB7F082B8BD9FB79002B1AD04FF000037B7713E07A7F48F26023C1F6FF73AE
:402700004FF0000199547A7F48F2D413C1F6FF734FF0000199547B7F03F101037B777B7F012BE8D948F2EF13C1F6FF731B78DBB2002B00F08E8148F2EF13C1F6FF731B788A
:40274000DBB203F1FF33DBB2184600F031FB38613B695B68FB60FB6803F107031B7803F04003002B0ED048F2F113C1F6FF731B78DBB243F00103DAB248F2F113C1F6FF7360
:402780001A700DE048F2F113C1F6FF731B78DBB223F00103DAB248F2F113C1F6FF731A703B6903F108033B613B691B78FB774FF001037B77EBE03B695B687B614FF000031A
:4027C000BB77DBE07A7F7B699B7803F07F039A4240F0CC80797F48F2F412C1F6FF720B464FEA43035B184FEA8303D31803F108031B889AB27B699B889A4211D2797F7B6952
:40280000988848F2F412C1F6FF720B464FEA43035B184FEA8303D31803F1080302461A807B691B781A4648F26023C1F6FF739B5CDAB27B695B789A4240F098807B69DB78F0
:4028400003F00303FB727B699B78DBB25BB2002B36DA797F48F2F412C1F6FF720B464FEA43035B184FEA8303D3184FF001025A70787FFB7A012B02D14FF0070101E04FF0FB
:402880000D0148F2F412C1F6FF7203464FEA43031B184FEA8303D3180A465A717B699B790A2B03D07B699B79022B3FD1FB7A032B3CD048F2C913C1F6FF737A7F1A7035E027
:4028C000797F48F2F412C1F6FF720B464FEA43035B184FEA8303D3184FF000025A70787FFB7A012B02D14FF0050101E04FF0090148F2F412C1F6FF7203464FEA43031B1843
:402900004FEA8303D3180A465A717B699B790A2B03D07B699B79022B08D1FB7A032B05D048F2C813C1F6FF737A7F1A70797F7B69987848F2F412C1F6FF720B464FEA430377
:402940005B184FEA8303D31802461A71797F7B69D87848F2F412C1F6FF720B464FEA43035B184FEA8303D31802461A707B6903F108037B61BB7F03F10103BB77BA7FFB7F3E
:402980009A42FFF41FAF7B7F03F101037B777B7F082B7FF610AF3B695B687B614FF000037B771CE07B699B7803F07F017B69187848F2F412C1F6FF720B464FEA43035B1839
:4029C0004FEA8303D31803F1080302469A707B6903F108037B617B7F03F101037B777A7FFB7F9A42DED300F027FA024648F2E813C1F6FF731A604FF00103FB7724E0F97FD7
:402A000048F2F412C1F6FF720B464FEA43035B184FEA8303D3187A8BDA80F97F48F2F412C1F6FF720B464FEA43035B184FEA8303D31803F108031B889AB27B8BD3187B8338
:402A4000FB7F03F10103FB77FB7F082BD7D9FFF7C9FC07F12007BD4680BD00BF80B584B000AF48F2EF13C1F6FF731B78DBB2002B00F0998148F2EF13C1F6FF731B78DBB2E5
:402A800003F1FF33DBB2184600F092F978607B6803F108037B607B681B78FB707B685B68BB604FF00003FB7378E1BB681B781A4648F26023C1F6FF739B5CDAB2BB681B7815
:402AC000194648F2D413C1F6FF735B5CDBB29A4200F05C81BB681B781A4648F26023C1F6FF739B5CDAB2BB685B789A4240F04E81BB681A7846F20403C4F200031B78DBB223
:402B00009A4240F04381BB689B7803F07F03BB70BB7803F1FF33DBB24FEA03137B70BB68DB7803F003033B70BB689B78DBB25BB2002B25DAB97848F2F412C1F6FF720B46D1
:402B40004FEA43035B184FEA8303D3184FF001025A70B8783B78012B02D14FF0070101E04FF00D0148F2F412C1F6FF7203464FEA43031B184FEA8303D3180A465A7124E02A
:402B8000B97848F2F412C1F6FF720B464FEA43035B184FEA8303D3184FF000025A70B8783B78012B02D14FF0050101E04FF0090148F2F412C1F6FF7203464FEA43031B18D0
:402BC0004FEA8303D3180A465A717A7846F20E03C4F20003D3184FF001021A70B978BB68988848F2F412C1F6FF720B464FEA43035B184FEA8303D31803F1080302461A80BB
:402C0000B978BB68987848F2F412C1F6FF720B464FEA43035B184FEA8303D31802461A71B978BB68D87848F2F412C1F6FF720B464FEA43035B184FEA8303D31802461A703D
:402C4000B97848F2F412C1F6FF720B464FEA43035B184FEA8303D3184FF00002DA707A7846F20C03C4F20003D3181846B97848F2F412C1F6FF720B464FEA43035B184FEAF3
:402C80008303D31803F108031B889BB24FEA13239BB2DBB203707A7846F20D03C4F20003D3181846B97848F2F412C1F6FF720B464FEA43035B184FEA8303D31803F1080337
:402CC0001B889BB2DBB203707A7846F28603C4F20003D3181846B97848F2F412C1F6FF720B464FEA43035B184FEA8303D318DB889BB2DBB203707A7846F28703C4F200038C
:402D0000D3181846B97848F2F412C1F6FF720B464FEA43035B184FEA8303D318DB889BB24FEA13239BB2DBB203707A7846F28403C4F20003D3181846B97848F2F412C1F67D
:402D4000FF720B464FEA43035B184FEA8303D318DB889BB2DBB203707A7846F28503C4F20003D3181846B97848F2F412C1F6FF720B464FEA43035B184FEA8303D318DB88A8
:402D80009BB24FEA13239BB2DBB20370BB6803F10803BB60FB7B03F10103FB73FA7BFB789A42FFF482AE07F11007BD4680BD00BF80B485B000AF0346FB7148F2D113C1F65A
:402DC000FF731B78DBB244F2CC72C0F200024FEAC303D3185B68FB60FB6803F10803FB60FB681B78FA799A4203D34FF00003FB6006E0FB794FEAC303FA68D3185B68FB60D8
:402E0000FB68184607F11407BD4680BC704700BF80B400AF48F2D113C1F6FF731B78DBB244F2CC72C0F200024FEAC303D3185B681846BD4680BC704780B584B000AF48F244
:402E4000EF13C1F6FF731B78DBB203F1FF33DBB21846FFF7ADFFB860BB68002B0FD0BB685B681B79FB71FB7903F102034FEAC303BA68D318BB60BB685B68FB6002E04FF033
:402E80000003FB60FB68184607F11007BD4680BD80B582B000AF4FF00003FB7146F20403C4F200031B78DBB203F07F03BB71BB7903F1FF33DBB24FEA03137B71BB79002BA6
:402EC00078D0BB79082B75D8B979B87948F2F412C1F6FF7203464FEA43031B184FEA8303D3189B78DBB243F00103D8B248F2F412C1F6FF720B464FEA43035B184FEA83039B
:402F0000D31802469A70B97948F2F412C1F6FF720B464FEA43035B184FEA8303D3184FF00002DA70B979B87948F2F412C1F6FF7203464FEA43031B184FEA8303D3185B78FF
:402F4000DBB243F00203D8B248F2F412C1F6FF720B464FEA43035B184FEA8303D31802465A70B97948F2F412C1F6FF720B464FEA43035B184FEA8303D3181B79DBB2DBB266
:402F80005BB2002B09DA7A7946F20E03C4F20003D3184FF08D021A7008E07A7946F20E03C4F20003D3184FF089021A70FEF738FD0346FB71FB79184607F10807BD4680BDAA
:402FC00080B582B000AF4FF00003FB7146F20403C4F200031B78DBB203F07F03BB71BB7903F1FF33DBB24FEA03137B71BB79002B00F0C180BB79082B00F2BD80B979B879A9
:4030000048F2F412C1F6FF7203464FEA43031B184FEA8303D3189B78DBB223F00103D8B248F2F412C1F6FF720B464FEA43035B184FEA8303D31802469A70B97948F2F41229
:40304000C1F6FF720B464FEA43035B184FEA8303D3184FF00002DA707A7946F20C03C4F20003D3181A46797946F20C03C4F20003CB181B78DBB203F07F03DBB21370B979C6
:40308000B87948F2F412C1F6FF7203464FEA43031B184FEA8303D3185B78DBB223F00203D8B248F2F412C1F6FF720B464FEA43035B184FEA8303D31802465A70B97948F2FD
:4030C000F412C1F6FF720B464FEA43035B184FEA8303D3181B79DBB2DBB25BB2002B23DAB97948F2F412C1F6FF720B464FEA43035B184FEA8303D3185B78DBB2012B09D1E5
:403100007A7946F20E03C4F20003D3184FF00C021A702CE07A7946F20E03C4F20003D3184FF00D021A7022E0B97948F2F412C1F6FF720B464FEA43035B184FEA8303D3188B
:403140005B78DBB2012B09D17A7946F20E03C4F20003D3184FF008021A7008E07A7946F20E03C4F20003D3184FF009021A70FEF757FC0346FB71FB79184607F10807BD46C1
:4031800080BD00BF80B584B000AF4FF00103FB7346F20403C4F200031B78BB7348F2EF13C1F6FF731B78DBB203F1FF33DBB21846FFF7FEFDB860BB685B681B79FB71BA7BD7
:4031C000FB799A4202D2BB7B012B03D94FF00003FB7318E0BA7BB97B48F26023C1F6FF735B5CD9B248F2D413C1F6FF739954BA7B46F20203C4F200031B78D9B248F26023F7
:40320000C1F6FF739954FB7B184607F11007BD4680BD00BF80B582B000AF4FF00003FB714FF4C043C4F200031B78DBB2DBB25BB2002B21DA46F20103C4F200031B78DBB2DE
:40324000012B18D148F2D813C1F6FF7344F2E872C0F200025A6044F2E873C0F200031B781A4648F2D813C1F6FF731A80FEF75EFA0346FB7100E000BFFB79184607F1080752
:40328000BD4680BD80B500AF4FF0280000F060FB4FF0030000F068FA4FF0050000F058FB4FF0030000F060FA4FF00F0000F050FB4FF0030000F058FA4FF0010000F048FB11
:4032C0004FF0020000F050FA4FF0050000F040FB4FF0060000F0CEF84FF00E0000F0CAF84FF02C0000F0C6F84FF0080000F0C2F84FF0010000F0BEF84FF00C0000F0BAF80D
:403300004FF0030000F0B6F84FF0050000F020FB44F23C60C0F2000000F0D4FA80BD00BF80B500AF4FF00C0000F0A4F848F2B413C1F6FF734FF001021A7080BD80B500AF4E
:4033400048F2B513C1F6FF731B78002B08D1FFF799FF48F2B513C1F6FF734FF001021A70FFF7DEFF80BD00BF80B582B000AF02460B46FA71BB71FB79032B2BD801A252F85F
:4033800023F000BF95330000A5330000B5330000C5330000BB79A3F18003DBB2184600F069F818E0BB79A3F14003DBB2184600F061F810E0BB79A3F16C03DBB2184600F0FB
:4033C00059F808E0BB79A3F12C03DBB2184600F051F800E000BF07F10807BD4680BD00BF80B584B000AF78604FF00103FB737B681B78BB730CE0BB7B184600F01FF8FB7B92
:403400007A68D3181B78BB73FB7B03F10103FB73BB7B002BEFD107F11007BD4680BD00BF80B582B000AF0346FB71FB79184600F005F807F10807BD4680BD00BF80B584B0FA
:4034400000AF0346FB7100F031F8FB794FEA1313FB73FB7B184600F02DF9FB7903F00F03FB73FB7B184600F025F907F11007BD4680BD00BF80B584B000AF0346FB7100F010
:4034800015F8FB794FEA1313FB73FB7B184600F06BF9FB7903F00F03FB73FB7B184600F063F907F11007BD4680BD00BF80B582B000AF4FF4A243C4F200034FF4A242C4F2AD
:4034C00000021278D2B222F07F02D2B21A7045F20213C4F200031B78DBB223F00F03FB7145F20213C4F20003FA7942F00F02D2B21A7045F20313C4F200031B78DBB223F063
:403500000F03FB7145F20313C4F20003FA791A7045F20413C4F200031B78DBB223F00F03FB7145F20413C4F20003FA791A704FF4A243C4F200034FF4A242C4F20002127804
:40354000D2B222F02002D2B21A704FF4A243C4F200034FF4A242C4F200021278D2B242F04002D2B21A704FF0000000F015FA4FF4A243C4F200034FF4A242C4F200021278AD
:40358000D2B242F01002D2B21A704FF0010000F003FA45F20113C4F200031B78FB714FF4A243C4F200034FF4A242C4F200021278D2B222F01002D2B21A704FF0000000F0D6
:4035C000EBF9FB7903F00803FB714FF4A243C4F200034FF4A242C4F200021278D2B242F01002D2B21A704FF0010000F0D5F94FF4A243C4F200034FF4A242C4F200021278A1
:40360000D2B222F01002D2B21A70FB79002BAAD14FF4A243C4F200034FF4A242C4F200021278D2B222F04002D2B21A704FF4A243C4F200034FF4A242C4F200021278D2B2BC
:4036400022F07F02D2B21A7045F20213C4F2000345F20212C4F200021278D2B222F00F02D2B21A7045F20313C4F200031B78DBB223F00F03FB7145F20313C4F20003FA7932
:4036800042F00F02D2B21A7045F20413C4F200031B78DBB223F00F03FB7145F20413C4F20003FA7942F00F02D2B21A7007F10807BD4680BD80B582B000AF0346FB714FF4E1
:4036C000A243C4F200034FF4A242C4F200021278D2B242F02002D2B21A704FF4A243C4F200034FF4A242C4F200021278D2B222F04002D2B21A704FF0000000F04DF94FF4F5
:40370000A243C4F200034FF4A242C4F200021278D2B222F00F02D2B21A704FF4A243C4F200034FF4A242C4F200021278D1B2FA790A43D2B242F01002D2B21A704FF001002A
:4037400000F02AF94FF4A243C4F200034FF4A242C4F200021278D2B222F01002D2B21A7007F10807BD4680BD80B582B000AF0346FB714FF4A243C4F200034FF4A242C4F266
:4037800000021278D2B222F06002D2B21A704FF4A243C4F200034FF4A242C4F200021278D2B222F00F02D2B21A704FF4A243C4F200034FF4A242C4F200021278D1B2FA7938
:4037C0000A43D2B242F01002D2B21A704FF0010000F0E2F84FF4A243C4F200034FF4A242C4F200021278D2B222F01002D2B21A7007F10807BD4680BD80B586B000AF786063
:403800004FF00A03FB75FB7D07F11801CB184FF0000203F8102CFB7D03F1FF33FB7528E079684CF6CD43CCF6CC43A3FB01234FEAD30213464FEA83039B184FEA4303CA1AD0
:40384000D3B203F13003BB75FB7D07F11801CB18BA7D03F8102C7A684CF6CD43CCF6CC43A3FB02134FEAD3037B60FB7D03F1FF33FB757B68092BD3D879684CF6CD43CCF62B
:40388000CC43A3FB01234FEAD30213464FEA83039B184FEA4303CA1AD3B203F13003BB75FB7D07F11801CB18BA7D03F8102CFB7D07F10802D3181846FFF792FD07F11807E6
:4038C000BD4680BD80B584B000AF7860FFF7EEFD4FF04000FFF7CEFD4FF00003FB730AE0FB7B7A68D3181B781846FFF7A7FDFB7B03F10103FB73FB7B3F2BF1D9FFF7D6FDC0
:403900004FF08000FFF7B6FD07F11007BD4680BD0230800800F0058000BF013800467FF4FCAF7047EFF3108072B6704780F31088704700BFAFF3008080B483B000AF03463B
:40394000FB7101BE07F10C07BD4680BC704700BF80B582B000AF78600BE048F22013C1F6FF731B681846FFF7D3FF7B68A3F500437B607B68B3F5004FEFD848F21813C1F6EE
:40398000FF731B687A6802FB03F31846FFF7C0FF07F10807BD4680BD80B582B000AF0346FB80FA8848F21C13C1F6FF731B7803FB02F31846FFF7ACFF07F10807BD4680BD29
:4039C00080B584B000AF03463960FB714EF60853CEF200031B68FB60FB791F2B03D94FF00000FFF7A9FFFB7903F01F0303F110034FEA8303FA68D3181B68BB60FB7903F009
:403A00001F0303F110034FEA8303FA68D3183A681A60BB68184607F11007BD4680BD00BF80B582B000AF02460B46FA71BB71BB79072B03D94FF00000FFF77EFFFB791F2BAE
:403A400003D94FF00000FFF777FFFB7903F01F0303F1604303F56443BA794FEA4212D2B21A7007F10807BD4680BD00BF80B582B000AFFFF757FF0346FB7144F2A033C4F256
:403A8000000344F2A032C4F200021278D2B242F00802D2B21A7044F2B033C4F2000344F2B032C4F200021278D2B242F00802D2B21A70FB791846FFF739FF07F10807BD46E7
:403AC00080BD00BF80B584B000AF78600B46FB704FF00003FB731DE04FF00100FFF75CFF00E000BF44F22273C4F200031B78DBB203F00103002BEFD0FB7B7A68D21844F244
:403B00002073C4F200031B78DBB21370FB7B03F10103FB73FA7BFB789A42E2D3FB7B184607F11007BD4680BD80B485B000AF0346FB714FF00703FB6044F22273C4F2000329
:403B40001B78DBB203F00203002B29D044F22073C4F200034FF0B6021A7044F22073C4F200034FF0E1021A7044F22073C4F200034FF00E021A7044F22273C4F200031B7866
:403B8000DBB203F00203002B06D144F22073C4F20003FA791A7006E04FF00903FB6002E04FF00403FB60FB68184607F11407BD4680BC704780B582B000AF4FF004037B60EF
:403BC000FFF7B0FE0346FB7048F2B813C1F6FF731B78002B28D148F2B813C1F6FF734FF001021A704FF000037B604FF00403C4F208031B6803F00103002B15D04FF004039A
:403C0000C4F208034FF00402C4F20802126822F001021A6000BF00BF00BF48F2BC13C1F6FF734FF001021A60FB781846FFF77EFE7B68184607F10807BD4680BD80B582B058
:403C400000AFFFF76FFE0346FB7148F2B813C1F6FF734FF000021A7048F2BC13C1F6FF731B68012B15D14FF00403C4F208034FF00402C4F20802126842F001021A6000BFC9
:403C800000BF00BF48F2BC13C1F6FF734FF000021A60FB791846FFF749FE07F10807BD4680BD00BF80B582B000AF4FF00003FB714FF00003BB714FF4C043C4F200031B78C0
:403CC000DBB203F00303012B02D0022B07D01EE046F20403C4F200031B78BB7118E046F20403C4F200031B78DBB203F07F0148F2F412C1F6FF720B464FEA43035B184FEA20
:403D00008303D31803F108039B78BB7100E000BF48F2E813C1F6FF731A68BB79D3181B78022B04D0032B08D0012B08D004E0FDF75BF90346FB7103E002E000BF00E000BF94
:403D4000FB79184607F10807BD4680BD38B50E4D0E4B0024E81A8510AC4205D00B4951F8242090470134F7E700F06EFD0849094A541AA5100024AC4205D0054B53F8240078
:403D800080470134F7E738BD5448000054480000544800005C48000010B50023934203D0CC5CC4540133F9E710BD82180346934202D003F8011BFAE7704700000EB400B55B
:403DC0009CB0029006906FF000401DAB049007904FF402710A4853F8042BADF814104FF6FF71ADF81610006802A9019300F062F8029B00221A701CB05DF804EB03B070473E
:403E00008881FF1F2DE9F8439368064689461446002B41D1928912F4906F3DD0616903254D43236927680220FF1A95FBF0F5791C02F48062A94211B2A8BF3D18304679B16C
:403E4000294600F009FB8046A0B13A462169FFF7A3FFA38923F4906040F08002A28113E019462A4600F050FB804668B93046216900F0AEFAA0890C2340F0400233604FF006
:403E8000FF30A281BDE8F88308EB07016561ED1BC4F810802160A560A368002B06DD206800F8019BA2682060511EA1600020BDE8F88300002DE9F0479CB003938B890D46F0
:403EC00003F0800114460AB2064662B12B6953B9402100F0C1FA2860286110B90C213160D3E04020686100272021302209978DF829108DF82A2023461F4613F8010B28B90C
:403F0000B7EB040A16D04FF000090DE02528F3D1F6E7304614F809102A46FFF773FF013000F0AC8009F10109D145F2DB099901EB0A0209923B78002B00F0A08000244FF09B
:403F4000FF3004940794059006948DF853401A9407F101094F4F4C4638462178052200F0C5FA09F10109049B30B1C41B012707FA04F73B430493EDE7D90602D520218DF8DF
:403F800053101A0702D52B228DF8532020782A2802D0079B27460EE0039A1768101D002F039001DB079704E0794243F002030791049301340AE03C46217801373039092910
:403FC00003D80A2404FB0313F5E7079322782E2A19D160782A2809D1039802340368021D002B0392B8BF4FF0FF330BE0671C00233C46217801373039092903D80A2404FBC3
:404000000313F5E70593244F21783846032200F06DFA38B1C71B402101FA07F1049B01340B43049314F8011B1C4806228DF8281000F05CFA88B11A4A32B9039FFB1D23F00C
:4040400007000830039014E003A90091304604A92A46144BAFF3008007E003A8009004A930462A460F4B00F08FF8B0F1FF3F804604D0099A02EB080109913CE7AB8903F0AD
:40408000400002B20AB9099801E04FF0FF301CB0BDE8F08712480000184800001C48000000000000053E00002DE9F047154699468A680B6980469A42A8BF13462B6091F8AD
:4040C00043000C46DDF820A008B1591C29602668B20602D52A68931C2B60206810F0060618D094F8437020683E1C18BF012683061AD5A119302281F8432094F845300236C2
:4041000081F8443010E04046617E4A46D047013006D00136E1682A688B1A9E42F3DBE0E74FF0FF30BDE8F0870027B74209DAE119404691F843104A46D0470130F0D00137AA
:40414000F3E721682868E66801F00602042A08BFC0EB06052369A6680CBF25EAE57500259E42C4BFC3EB0603ED180026AE4207DA4046A17E4A46D0470130D1D00136F5E720
:404180000020BDE8F08700002DE9F0430C46257E85B06E2D9046074699460C9904F1430200F0AA8012D8632D24D009D8002D00F0BB80582D40F0CB8084F84550824D57E0FC
:4041C000642D20D0692D40F0C2801CE0732D00F0AF8009D86F2D2FD0702D40F0B880256845F0200626603FE0752D25D0782D40F0AE8039E0086804F14206021D0A6001681B
:4042000084F84210A7E020680B6810F0800F02D01E1D0E6008E003F1040510F0400F0D6002D0B3F9001000E0196800293CDA2D20494284F8430037E025680E6815F0800F10
:4042400002D0331D0B6007E006F1040015F0400F086001D0318800E03168267E5A4D6F2E14BF0A2308231BE07820584D84F8450020680B6810F0800F03F104060E6003D13A
:40428000410601D5198800E01968C60744BF40F02000206019B9206820F0200323601023002084F8430001E0474D0A236668002EA66003DB206820F00400206001B96EB1A6
:4042C00004F14200B1FBF3FE03FB1E11695C064600F8011971460029F4D100E01646921B082B22613CD12368D80739D56068904236DC511C616033E026680B6816F0800F4E
:4043000005D01E1D0E601968606908600CE003F1040016F0400F086003D018686369038002E061691E68316000232361164617E00E68321D0A603668304600F019F963683D
:404340002061984288BF23612069606005E004F1420684F8425001232361002184F84310CDF800903846214603AA4346FFF79CFE013002D14FF0FF3022E00025226995420B
:4043800007DA3846715D4246C8470130F2D00135F4E72168890705D4E06803998842B8BF08460DE00025E068039BC21A9542F3DA3846617E4246C8470130DBD00135F2E779
:4043C00005B0BDE8F08300BF234800003448000030B500293CD051F8042C0B1F1D49002AB8BF9B180A6812B95A600B6030BD93420ED219685818904203D15A58891842683B
:40440000196014485A60036030BD994203D80A4651680029F9D1146815199D420AD118682318D0188842136012D108681B1813604B680CE002D90C23036030BD18681C1801
:404440008C4203D10C684968001918605960536030BD00BFC081FF1F70B5CD1C25F0030508350C2D38BF0C25002D06462DDB8D422BD31D4B1B681C469CB12268501B0DD4E6
:404480000B2802D92060241817E0A34203D16068154A10601DE0616859601AE023466468EAE72946304600F053F8431C01460CD0CC1C24F003048C4201D1256009E0304643
:4044C000611A00F045F80130F7D10C203060002070BD04F10B01231D21F00700C31A02D05A42E25070BD70BDC081FF1F10B5C9B2034682189342184604D0047801338C42DB
:40450000F8D100E0002010BDF8B5064615460C4621B91146BDE8F840FFF79EBF1AB9FFF757FF2C4612E000F02BF8A8420ED230462946FFF791FF074638B121462A46FFF710
:404540002BFC30462146FFF743FF3C462046F8BD38B5064C002305460846236000F01AF8431C02D1216801B1296038BD8C82FF1F034613F8012B002AFBD1181A0138704733
:4045800051F8040C002802DA04390B58C018043870470000094A13686BB118186946884202D8106018467047054B0C221A604FF0FF3318467047034B1360EEE7C481FF1FCA
:4045C0008C82FF1F9082FF1F000000004F4B4B4B00000000416775617264616E646F000054656D70203D20002B0000002D000000200000004300000025640A001051004037
:404600006000C0510040100000000140001000140140000800400140000A004C0140000200500140200000003031323334353637383941424344454600000000000E080880
:40464000080E0000000A0A0404040000000E0A0E08080000000E0A0C0A0A0000000E080C080E0000000E080E020E0000000E080E020E00000C12120C0000000012010002A5
:4046800002000008B40432F2010001028001000009024300020101C032090400000102020103052400100104240202052406000105240100010705810308000A09040100C4
:4046C000020A0000040705820240000A0705030240000A00040309042C0343007900700072006500730073002000530065006D00690063006F006E006400750063007400AB
:404700006F007200100355005300420055004100520054003803430044004300200043006F006D006D0075006E00690063006100740069006F006E00200049006E00740099
:40474000650072006600610063006500260343004400430020004400610074006100200049006E007400650072006600610063006500000002030000000081030800020002
:404780000100820240000A000100030240000A00020A000001000000904600000300000078470000000000000000000000000000000000000000000090470000010000005D
:4047C0007C460000010000009447000001000000BC47000012034D005300460054003100300030000100000028000000000104000100000000000000000143595553420081
:40480000000030303030310000000000000000004300232D302B2000686C4C00656667454647003031323334353637383941424344454600303132333435363738396162E3
:404840006364656600000000F8B500BFF8BC08BC9E46704751000000D5020000F8B500BFF8BC08BC9E4670472D000000804800000881FF1F8800000000010000000000005B
:404880000000000000C2010000000800006CDC0280BB0000300000000000C05D00000000000000000000000000000000000000000000000000000000000000001048000003
:4048C00000000000000000000000000000000000000000000000000000000000000000000000000000000000000000000000000000000000000000000000000000000000B8
:404900002481FF1F000000000000000000000000000000000000000000000000000000000000000000000000000000000000000000000000000000000000000000000000B4
:404940000000000000000000000000000000000000000000000000000000000000000000000000000000000000000000000000000000000000000000000000000000000037
:4049800000000000000000000000000000000000000000000000000000000000000000000000000000000000000000000000000000000000000000000000000000000000F7
:4049C00000000000000000000000000000000000000000000000000000000000000000000000000000000000000000000000000000000000000000000000000000000000B7
:404A00000000000000000000000000000000000000000000000000000000000000000000000000000000000000000000000000000000000000000000000000000000000076
:020000040003F7
:0200000480007A
:4000000001450040015200400217014002190140034001400341014003420140034301400447014004480140024C0140015101407E027C40EA02EE0AEA02EE0A3381364072
:40004000CC709F01A640A7809F01A640A7809F01A640A78008080B040F40C20EAE40AF81EA40EE50AC08AF44002A0000007F7F00000000000000000000000000C0000000EA
:400080000000000000000000000000000000000000000000000000000000000000000000000000000000000000000000000000000000000000000000000000000000000040
:4000C0000000000000000000000000000000000000000000000000000000000000000000000000000000000000000000000000000000000000000000000000000000000000
:4001000000000000000000000000000000000000000000000000000000000000000000000000000000000000000000000000000000000000000000000000000000000000BF
:40014000000000000000000000000000000000000000000000000000000000000000000000000000000000000000000000000000000000000000000000000000000000007F
:0200000490006A
:0400000000004005B7
:0200000490105A
:04000000BC90ACAF55
:0200000490303A
:02000000580D99
:0200000490402A
:4000000000000000000000000000000000000000000000000000000000000000000000000000000000000000000000000000000000000000000000000000000000000000C0
:400040000000000000000000000000000000000000000000000000000000000000000000000000000000000000000000000000000000000000000000000000000000000080
:400080000000000000000000000000000000000000000000000000000000000000000000000000000000000000000000000000000000000000000000000000000000000040
:4000C0000000000000000000000000000000000000000000000000000000000000000000000000000000000000000000000000000000000000000000000000000000000000
:0200000490501A
:0C00000000012E12306900012E328876BB
:00000001FF