:4000000000800020110000001D0100001D01000080B500AF024B034A12681A6000F082F8BC760040FA46004010B5054C237833B9044B13B10448AFF300800123237010BD63
:400040008881FF1F00000000E031000008B5064B1BB106480649AFF300800648036813B1054B03B1984708BD00000000E03100008C81FF1F0881FF1F0000000080B5A4B01E
:4000800000AF0020002100F0F7FA62B600BF00F075FC0346002BFAD000F010FE00237B6407F148023C23104600211A4602F079FC00237B6007F108023C23104600211A46E4
:4000C00002F06FFC00F098FE0346002B23D03B1D184600F0C1FE034687F88F3007F18603184600F0AFFAC7F88800B7F886301BB207F14402104608491A4602F05BFC00BF8C
:4001000000F092FE0346002BFAD007F14403184600F0FCFDD6E7D5E7E431000080B400AFFEE700BF80B586B000AF214B7B61214B3B611F4B7B611F4B3B612FE03B691B687A
:40014000FB603B695B68BB603B699B683B6000237B600AE0BB681A1DBA60FA68111DF96012681A607B6804337B607A683B689A42F0D13B69DB683B6000237B6007E0BB6886
:400180001A1DBA6000221A607B6804337B607A683B689A42F3D13B6910333B617B695A1E7A61002BCAD102F0CDFBFFF767FFFEE7010000001834000080B582B000AF174BF8
:4001C000174A1A60174B174A126842F400721A6000237B600FE07B68032B04D8124B7A6853F8223000E0114B114A796842F821307B6801337B607B682F2BECD90D4B1B782D
:40020000DAB20D4B1A700D4B094A1A6000F006F90B4B00221A600837BD4680BD0CED00E00004FA0514ED00E0000000001D0100000080FF1FBC7600400481FF1F08ED00E068
:400240000081FF1F80B582B000AF78603960786800213A6802F0A5FB0837BD4680BD00BF80B584B000AFF860B9607A60F868B9687A6802F08DFB1037BD4680BD80B483B0B7
:4002800000AF0346FB71FEE780B487B000AF7860396000233B6100237B6126E07B699B007A6813441B68BB60BB68FB73BB6823F0FF03BB6013E03B695B003A6813441B78EE
:4002C0001A46BB6813443A69520039680A4452781A703B6901333B61FB7B013BFB73FB7B002BE8D17B6901337B617B690B2BD5D91C37BD465DF8047B704700BF80B582B03B
:4003000000AF294B06221A70284B52221A70284B284A1278D2B21A70274B4FF4E2621A80264B41F251221A800023FB7019237B6014E0FB785B00DAB2214B1B78DBB203F044
:400340000103DBB21343DBB203F00303FB704FF4F07002F059F97B68013B7B607B68002B02D0FB78032BE4D17B68002B02D10320FFF784FF134B4FF480721A80114B07225F
:400380001A70114B00221A70104B48221A700D4B00221A700E4B00221A700E4B02221A700837BD4680BD00BF0043004000420040A14600400F010049224200402042004043
:4003C00025420040044000400640004008400040094000400140004080B483B000AF0B4B1B78FB710A4BFA7902F00702D2B21A70084BFA791209D2B21A70074B44221A704D
:400400000C37BD465DF8047B704700BFCF0100496E5800406F5800407658004080B582B000AF72B6324B324A1278D2B242F00402D2B21A700023FB7113E0FA7913465B00C4
:4004400013445B002B4A13443B603B681A683B689B889BB210461946FFF7F4FEFB790133FB71FB79062BE8D94FF090402249FFF70BFF224B214A1278D2B242F00202D2B2FA
:400480001A701F4B1E4A1278D2B242F00202D2B21A701C4B1B4A1278D2B242F04002D2B21A70194B184A1278D2B242F01002D2B21A70164816490A22FFF7D2FE154B154A9E
:4004C0001278D2B242F00802D2B21A70124B01221A70FFF713FF104BC1221A70FFF77CFF0E4808490E22FFF7BBFE0837BD4680BDE8460040E83100003000004803500140C1
:4005000013500140A0430040C2430040F05100406C0000482243004000480040B043004080B582B000AF4FF0FF337B6002F0E8F802F066F90346002B0AD1012002F02EF90C
:400540000346072B01D107237B6002F08DF901E004237B607B6818460837BD4680BD00BF80B584B000AF78601D4B1B78DBB203F00203002B27D11A4B1B78DBB29B08DBB207
:40058000002B1DD107F108031846022102F0DAF80346022B10D13B7A012B04D17B7A1A467B681A8005E07B7A5B429BB29AB27B681A800023FB6008E04FF0FF33FB6004E058
:4005C0000723FB6001E01023FB60FB68072B01D002F04AF9FB6818461037BD4680BD00BF2247004080B584B000AF7860FFF798FFB860BB68072B1DD14FF4FA53FB8116E0E2
:40060000BB68072B06D00E4B1B78DBB203F00203002B0FD1BB68072B03D17868FFF7A0FFB8600A2002F010F8FB890A3BFB81FB89002BE5D1BB6818461037BD4680BD00BFC8
:400640002247004080B584B000AF78600223FB720AE07868FFF7C6FFF860FB68002B00D005E0FB7A013BFB72FB7A002BF1D1FB6818461037BD4680BD80B582B000AF024609
:400680000B46FA71BB71094B1B78002B04D100F00FF8064B01221A70FA79BB791046194600F0CCF80837BD4680BD00BFA481FF1F80B582B000AF01F0B1FF0346FB714F4BDF
:4006C0004E4A1278D2B242F00102D2B21A704C4B4B4A1278D2B242F00102D2B21A70494B01221A70484B02221A70484B474A1278D2B202F07F02D2B21A70002001F0A4FFAB
:40070000434B434A1278D2B222F00602D2B21A70404B404A1278D2B222F02002D2B21A703B4B3B4A1278D2B242F00102D2B21A70012001F089FF282001F086FF364B364A4E
:400740001278D2B202F07F02D2B21A70324B324A1278D2B222F04002D2B21A702C4B2C4A1278D2B242F00202D2B21A70022001F06BFF274B264A1278D2B242F00402D2B219
:400780001A70264B00221A70254B00221A70FB79184601F047FF1720224901F067FF1720072101F08BFF15201F4901F05FFF1520072101F083FF18201C4901F057FF1820C2
:4007C000072101F07BFF0020194901F04FFF0020072101F073FF0120164901F047FF0120072101F06BFF0220134901F03FFF0220072101F063FF0837BD4680BDA5430040AE
:40080000B54300409D60004009600040106000409443004012600040F85100408460004085600040D9150000CD1500009D0E0000C91400001D1500007115000080B582B0D8
:4008400000AF02460B46FA71BB71254B4FF400021A60234B4FF080721A60214B01221A601F4B02221A601E4B04221A601D4B00221A70BB79002B02D0012B04D007E01A4BA6
:4008800002221A7007E0184B03221A7003E0164B03221A7000BF154BFA791A70144B00221A70144B00221A70134B00221A70134B00221A70124B00221A70124B00221A7046
:4008C000114B03221A70114B80221A70012001F09BFE0F4B04221A700837BD4680BD00BF00E100E0CE81FF1F09600040C981FF1FE781FF1FDC81FF1FE481FF1FE681FF1F2A
:40090000E981FF1FC881FF1F28600040086000401260004080B400AF0F4B00221A700F4B00221A700E4B00221A700E4B00221A700D4B00221A700D4B00221A700C4B00222C
:400940001A700C4B03221A700B4B80221A70BD465DF8047B704700BFCE81FF1FE781FF1FDC81FF1FE481FF1FE681FF1FE981FF1FC881FF1F286000400860004080B400AF60
:40098000034B1B78DBB21846BD465DF8047B7047E781FF1F80B485B000AF0346FB710023FB81FB79002B1DD0FB79082B1AD8FB79013BDBB21B017B737A7B0E4B13441B7847
:4009C000DBB203F00F03FB81FB891B029AB2797B094B0B441B78DBB213439BB2FB81FB89023BFB81FB8918461437BD465DF8047B704700BF0C6000400D60004090B484B09E
:400A000000AF396013460246FA71BB80FB79002B69D0FB79082B66D8FB79013BDBB21B017B737A7B324B1344BB60B988FA79314813465B0013449B000344DB889BB2C3F5BD
:400A4000007399420BD9FA792A4913465B0013449B000B44DB889BB2C3F50073BB807A7B254B13441946BB881B0A9BB2D8B2FA79204C13465B0013449B002344DB78DBB22D
:400A80000343DBB20B707A7B1C4B1344BA88D2B21A703B68002B0FD00023FB8108E0FB893A6813441A78BB681A70FB890133FB81FA89BB889A42F2D3FA790E4913465B00DC
:400AC00013449B000B4400225A707A7B0C4B13441946FA79074813465B0013449B0003445B79DBB20B701037BD4690BC704700BF88600040EC81FF1F0C6000400D60004024
:400B00000E60004080B586B000AF396013460246FA71BB80FB79002B30D0FB79082B2DD83B68002B2AD0FB79013BDBB21B017B757A7D164B13443B61FB791846FFF72AFF75
:400B40000346FB81BA88FB899A4201D9FB89BB800023FB8209E0FB8A3A6813443A691278D2B21A70FB8A0133FB82FA8ABB889A42F1D3FB79184600F00BF801E00023BB8092
:400B8000BB8818461837BD4680BD00BF8860004080B485B000AF0346FB71FB79002B1ED0FB79082B1BD8FB79013BDBB21B01FB73FA790D4913465B0013449B000B44002283
:400BC0005A70FA7B094B13441946FA79064813465B0013449B0003445B79DBB20B701437BD465DF8047B7047EC81FF1F0E60004080B582B000AF0023FB71294B1B78DBB2D7
:400C0000DBB25BB2002B11DA264B1B78DBB2212B00D00AE0244B07221A80234B234A5A6000F0B8FA0346FB7100BF34E01C4B1B78DBB2DBB25BB2002B2DDB1A4B1B78DBB2A3
:400C4000202B02D0222B13D025E0174B07221A80154B164A5A60164B1B78DBB243F00103DAB2134B1A7000F015FB0346FB7112E0104B1B78DBB21A460F4B1A800C4B1B78F7
:400C8000DBB243F00203DAB2094B1A7000F0A2FB0346FB7100BFFB7918460837BD4680BD0060004001600040D081FF1F0C81FF1FC481FF1F02600040C281FF1F80B500AF0E
:400CC000044B00221A70044B1B78DBB21846FFF75FFF80BDC481FF1FC081FF1F80B485B000AF78600023FB8102E0FB890133FB81FB897A6813441B78002BF6D1FB89184610
:400D00001437BD465DF8047B704700BF80B584B000AF78600023BB817868FFF7DFFF0346FB81334B1B78DBB21A46324913465B0013449B000B4408331B889BB2FA899A425B
:400D40000DD92B4B1B78DBB21A462A4913465B0013449B000B4408331B889BB200E0FB897B81234B1B78D9B2BB897A681A447B89084611461A46FFF741FEFA897B89D31AE2
:400D8000FB81FB89002B0FD1194B1B78DBB21A46184913465B0013449B000B4408331B889BB27A899A421DD1BA897B891344BB8100BF0F4B1B78DBB21A460E4913465B0078
:400DC00013449B000B445B78DBB2002BF1D0FB89002B07D1064B1B78DBB2184600210022FFF70CFEFB89002B9BD11037BD4680BDC181FF1FEC81FF1F80B400AF084B1B7877
:400E0000DBB21A46074913465B0013449B000B445B78DBB21846BD465DF8047B704700BFC081FF1FEC81FF1F80B400AF084B1B78DBB21A46074913465B0013449B000B4490
:400E40005B78DBB21846BD465DF8047B704700BFC181FF1FEC81FF1F80B582B000AF78600C4B1B78D9B20B4B1B78DBB21A460A4813465B0013449B00034408331B889BB2D9
:400E8000084679681A46FFF73DFE034618460837BD4680BDC081FF1FEC81FF1F80B582B000AF374B1B78BB71BB7903F01003002B63D00123FB71BB795BB2002B13DABB7956
:400EC00003F00F03012B02D00023FB711DE000F061F82C4B1B78DBB2DBB25BB2002B14DA0023FB7111E0BB7903F04003002B02D000F094F809E0BB7903F02003002B02D03D
:400F000000F0B2F801E00023FB71FB79002B34D01B4B1B78BB71BB795BB2002B2DDB1A4B1B78DAB2194B1B78DBB21343BB71184BBA791A70164B1B78DBB2BA799A421CD144
:400F4000104B1B78FB710E4B1B78DBB223F07F03BB71BB79002B0AD1094B0A4A1278D2B21A70074B1B78DBB203F00F03FB71054B1B78DBB2FA799A42E2D10837BD4680BD8F
:400F800028600040E581FF1F5A82FF1FE881FF1F2960004080B582B000AF1D4B1B78FB711B4BFA791A701A4B1B78FB71FB795BB2002B03DA174BFA791A7025E0022000F058
:400FC00049FA154B1B78DBB203F06003202B08D0402B0BD0002B0ED100F004FB0346FB710CE001F069FC0346FB7107E001F0DEFA0346FB7102E00023FB7100BFFB79002B96
:4010000002D1044B03221A700837BD4680BD00BF28600040E581FF1F0060004080B500AF104B1B78DBB2062B19D801A252F823F05F1000005F1000004D1000005F1000008A
:40104000531000005F1000005910000000F0FCF806E000F0AFF903E000F0D8F900E000BF80BD00BFCE81FF1F80B500AF124B1B78DBB2062B1DD801A252F823F0B3100000DD
:40108000B310000099100000B31000009F100000B3100000A510000000F0DCF80AE000F02DF907E0032000F0D5F9044B03221A7000E000BF80BD00BFCE81FF1FE581FF1FC4
:4010C00080B483B000AF0023FB712B4B1B78DBB21A462A4B1B889BB213449AB2274B1A8018E0FB7903F1804303F5C043244A52681278D2B21A70224B5B685A1C204B5A6098
:40110000FB790133FB711E4B1B889BB2013B9AB21B4B1A801A4B1B889BB2002B02D0FB79072BDED9144B1B78DBB2082B02D0FB79002B0FD0134B1B78DBB283F07F03DB4378
:40114000DAB2104B1A70104B0F221A700F4B02221A7005E00C4B02221A700C4B02221A70054BFA791A700A4BFA791A700C37BD465DF8047B704700BFC881FF1FCA81FF1FF2
:40118000D081FF1F5A82FF1FE581FF1FCE81FF1FE881FF1F80B582B000AF154B1B889BB2002B02D100F02EF81DE0124B02221A70114B00221A7000F06DF9104B1B78DBB2F3
:4011C0001B029AB20E4B1B78DBB213439BB2FB80074B1B889BB2FA889A4202D2044BFA881A80FFF76DFF012318460837BD4680BDD081FF1FCE81FF1F5A82FF1F0760004030
:401200000660004080B400AF0A4B02221A700A4B80221A70094B0F221A70094B00221A70084B00221A7001231846BD465DF8047B704700BFCE81FF1F5A82FF1FE581FF1FD9
:40124000C881FF1FE881FF1F80B500AFFFF738FF80BD00BF80B500AF0A4B1B78DBB21A46094B1B889BB213449AB2074B1A80074B00221A70012000F0EDF8054B03221A70F4
:4012800080BD00BFC881FF1FCA81FF1FCE81FF1FE581FF1F80B582B000AF124B04221A70114B80221A7000F0F5F8104B1B78DBB21B029AB20E4B1B78DBB213439BB2FB806E
:4012C0000C4B1B889BB2FA889A4202D2094BFA881A80094B0B221A70012318460837BD4680BD00BFCE81FF1F5A82FF1F0760004006600040D081FF1FE581FF1F80B483B02C
:4013000000AF0023BB71254B1B78DBB203F00F03DBB2023BFB71FB799AB2214B1B889BB213449AB21E4B1A801BE01E4B5A68BB7903F1804303F5C0431B78DBB21370194B0F
:401340005B685A1C174B5A60BB790133BB71FB79013BFB71134B1B889BB2013B9AB2114B1A80104B1B889BB2002B02D0FB79002BDBD10D4BFA791A700C4B1B78DBB283F0CA
:401380007F03DB43DAB2094B1A70094B0B221A700C37BD465DF8047B704700BF29600040CA81FF1FD081FF1FE881FF1F5A82FF1FE581FF1F80B500AF044B00221A700120E2
:4013C00000F048F8024B03221A7080BDCE81FF1FE581FF1F80B400AF084B06221A70084B06221A70074B80221A70074B00221A7001231846BD465DF8047B7047CE81FF1FAD
:40140000E581FF1F5A82FF1FE881FF1F80B500AF0C4B1B78DBB2002B0AD00B4B094A1278D2B262F07F02D2B21A70064B00221A70064B00221A70012000F00CF8044B03222C
:401440001A7080BDE681FF1F08600040CE81FF1FE581FF1F80B483B000AF0346FB710B4B9B68002B0CD0094B9B68FA791A70074B9B68074A128892B25A80044B00229A603F
:401480000C37BD465DF8047B704700BFD081FF1FCA81FF1F80B400AF094B00221A80094B9B68002B07D0074B9B6800221A70054B9B6800225A80BD465DF8047B704700BFDB
:4014C000CA81FF1FD081FF1F80B400AF104B1B78104B1B7BDBB203F00303012B08D00D4BDB7BDBB283F07F03DB43DAB2094BDA73084B01225A73084B074A1278D2B222F046
:401500000102D2B21A70BD465DF8047B704700BF0E600040EC81FF1F0B60004080B400AF104B1B78104B1B7EDBB203F00303012B08D00D4BDB7EDBB283F07F03DB43DAB23D
:40154000094BDA76084B01225A76084B074A1278D2B222F00202D2B21A70BD465DF8047B704700BF1E600040EC81FF1F0B60004080B400AF124B1B78124B93F82430DBB2CE
:4015800003F00303012B0AD00E4B93F82730DBB283F07F03DB43DAB20A4B83F82720094B012283F82520084B074A1278D2B222F00402D2B21A70BD465DF8047B704700BF52
:4015C0002E600040EC81FF1F0B60004080B400AFBD465DF8047B704780B500AFFFF79AF980BD00BF80B586B000AF0023FB7500233B619D4B00221A809C4B1B78DBB2DBB269
:401600005BB2002B80F20581994B1B78DBB20A2B00F2FD8001A252F823F000BF631700000F1800000F1800000F1800000F1800000F180000491600000F180000D917000060
:401640000F180000EF1700008A4B1B78DBB2012B0ED100F025FEB860BB685A68824B5A60814B12221A80FFF795FD0346FB7577E0804B1B78DBB2022B23D17F4B1B78DBB27E
:40168000184600F0E3FDB860BB68002B68D0BB685A68754B5A60744B5B6803331B78DBB21B029AB2704B5B6802331B78DBB213439BB29AB26C4B1A80FFF76CFD0346FB7593
:4016C000A6E06C4B1B78DBB2032B44D10023FB736A4B3B6109E03B691B78FB71FB793A6913443B61FB7B0133FB73634B1B78DBB2FA7B9A4204D23B691B78DBB2002BEAD11B
:401700005D4B1B78DBB2EE2B01D15D4B3B615A4B1B78DBB2002B0BD0574B1B78DAB2594B1B7C9A4204D1584800F0ACF9564B3B613B691B78DBB2002B12D03B691B78DBB233
:401740001A46494B1A80484B3A695A60FFF722FD0346FB755CE001F0AFF80346FB7557E056E0424B1B78DBB203F00303002B1FD0022B00D02FE03C4B02221A80434B1B78F1
:40178000DBB203F07F02424913465B0013449B000B449B78DAB23F4B1A703E4B00225A70314B3C4A5A60FFF7F5FC0346FB7512E02D4B02221A80384B1B78DAB2354B1A7050
:4017C000344B00225A70284B324A5A60FFF7E2FC0346FB7500BF1BE0234B01221A80224B2E4A5A60FFF7D6FC0346FB7510E01E4B01221A80254B1B78DBB21A46284B1A446C
:40180000194B5A60FFF7C6FC0346FB7500E000BF1FE1174B1B78DBB2013B0A2B00F2188101A252F823F000BF39190000511A0000C5190000511A000055180000511A00005F
:40184000511A0000511A0000A9180000511A0000FF180000084B1B78DAB2124B1A70FFF7B9FD0346FB75F4E0D081FF1F006000400160004003600040026000408032000016
:4018800080330000283200006082FF1F04600040EC81FF1FA881FF1FE981FF1FE781FF1F5882FF1FE681FF1F6C4B1B78BB71BB79002B06D0BB79013BDBB2184600F0C6FC62
:4018C000B860BB79002B02D0BB68002B02D1BB79002B13D1624B1B78DBB2BA799A4208D05F4BBA791A705F4B01221A70012000F0D1F9FFF76FFD0346FB75AAE0A9E000F0D0
:4019000019FE0346002B16D0574B1B787B71574B7A791A70534B01221A7000F05DFB7B797A7953498A5CD1B2524AD154FFF752FD0346FB758DE08CE04F4B1B78DBB203F032
:401940000303012B22D0012B0DD3022B00D038E0424B1B78DBB2002B04D100F049FD0346FB752EE02DE03D4B1B78DBB2012B0CD1424B1B78DBB223F00203DAB23F4B1A7055
:40198000FFF728FD0346FB751BE01AE0364B1B78DBB2012B14D8344B1B78DBB21A463849CB5CD9B22D4B1B78DBB2DB43DBB20B40D9B2334B9954FFF70DFD0346FB75FFE750
:4019C00000BF46E02C4B1B78DBB203F00303012B22D0012B0DD3022B00D038E01F4B1B78DBB2002B04D100F093FC0346FB752EE02DE01A4B1B78DBB2012B0CD11F4B1B78CB
:401A0000DBB243F00203DAB21C4B1A70FFF7E2FC0346FB751BE01AE0134B1B78DBB2012B14D8114B1B78DBB21A461549CB5CD9B20A4B1B78DBB2DB43DBB20B40D9B2104B0F
:401A40009954FFF7C7FC0346FB75FFE700BF00E000BFFB7D18461837BD4680BD02600040E781FF1FE481FF1F04600040DC81FF1F5882FF1FCC81FF1F00600040E981FF1F09
:401A80005C82FF1F90B488B000AF78600023BB771F4B07F10C040FCB84E80F007B68002B32D07B6822221A707B68013303221A700223FB7725E0BB7F03F1924303F58073FA
:401AC0001B787B77BB7F0133BB77FB7F7A6813447A7F1209D2B207F120010A4412F8142C1A70FB7F02337A6813447A7F02F00F0207F120010A4412F8142C1A70FB7F04336B
:401B0000FB77FB7F212BD6D92037BD4690BC70471432000080B483B000AF0123FB710023BB7197E0BB7903F1804303F5C1430C221A70FA794E4913465B0013449B000B4411
:401B40005B79DBB2002B18D0FA79494913465B0013449B000B441B79DBB2DBB25BB2002B05DABA79434B13440C221A700AE0BA79404B134408221A7004E0BA793D4B1344B9
:401B800080221A70BA793C4B13441946FA79384813465B0013449B00034408331B889BB21B0A9BB2DBB20B70BA79344B13441946FA792F4813465B0013449B00034408338A
:401BC0001B889BB2DBB20B70BA792D4B13441946FA79274813465B0013449B000344DB889BB2DBB20B70BA79264B13441946FA791F4813465B0013449B000344DB889BB234
:401C00001B0A9BB2DBB20B70BA791F4B13441946FA79174813465B0013449B000344DB889BB2DBB20B70BA79184B13441946FA790F4813465B0013449B000344DB889BB2AD
:401C40001B0A9BB2DBB20B70FB790133FB71BB791033BB71BB795BB2002BBFF663AF0C4BFF221A700C37BD465DF8047B704700BFEC81FF1F0E6000400C6000400D600040DC
:401C8000866000408760004084600040856000400A60004080B588B000AF0346FB7100237B830023FB7743E0FA7FA14913465B0013449B000B4400221A70FA7F9C4913467F
:401CC0005B0013449B000B4400229A70FA7F984913465B0013449B000B4400225A70FA7F934913465B0013449B000B440022DA70FA7F8F4913465B0013449B000B440022C3
:401D00005A71FA7F8A4913465B0013449B000B44083300221A80FA7F854913465B0013449B000B44083300229A70FB7F0133FB77FB7F082BB8D9FB79002B10D000237B770B
:401D40000AE07B7F7B4A0021D1547B7F7A4A0021D1547B7F01337B777B7F012BF1D9774B1B78DBB2002B00F03081744B1B78DBB2013BDBB2184600F069FA38613B695B6859
:401D8000FB60FB6807331B7803F04003002B08D06B4B1B78DBB243F00103DAB2684B1A7007E0674B1B78DBB223F00103DAB2644B1A703B6908333B613B691B78FB770123AC
:401DC0007B77AAE03B695B687B610023BB779CE07A7F7B699B7803F07F039A4240F08F807A7F534913465B0013449B000B4408331B889AB27B699B889A420BD27A7F7B6982
:401E000099884B4813465B0013449B00034408330A461A807B691B78464AD35CDAB27B695B789A426BD17B69DB7803F00303FB727B699B78DBB25BB2002B25DA7A7F3C4975
:401E400013465B0013449B000B4401225A70797FFB7A012B01D1072200E00D2234480B465B000B449B0003445A717B699B790A2B03D07B699B79022B2BD1FB7A032B28D0FD
:401E8000304B7A7F1A7024E07A7F294913465B0013449B000B4400225A70797FFB7A012B01D1052200E0092221480B465B000B449B0003445A717B699B790A2B03D07B6942
:401EC0009B79022B05D1FB7A032B02D01E4B7A7F1A707A7F7B699978154813465B0013449B0003440A461A717A7F7B69D978104813465B0013449B0003440A461A707B6926
:401F000008337B61BB7F0133BB77BA7FFB7F9A42FFF45EAF7B7F01337B777B7F082B7FF651AF3B695B687B6100237B7723E000BFEC81FF1F5882FF1FCC81FF1FE781FF1F0B
:401F4000E981FF1FC181FF1FC081FF1F7B699B7803F07F027B6919781D4813465B0013449B00034408330A469A707B6908337B617B7F01337B777A7FFB7F9A42E6D300F040
:401F8000A1F90246134B1A600123FB7718E0FA7F0F4913465B0013449B000B447A8BDA80FA7F0B4913465B0013449B000B4408331B889AB27B8B13447B83FB7F0133FB774D
:401FC000FB7F082BE3D9FFF7A5FD2037BD4680BDEC81FF1FE081FF1F80B584B000AF8F4B1B78DBB2002B00F015818C4B1B78DBB2013BDBB2184600F029F978607B68083356
:402000007B607B681B78FB707B685B68BB600023FB73FAE0BB681B78814AD35CDAB2BB681B788049CB5CDBB29A4200F0E880BB681B787B4AD35CDAB2BB685B789A4240F0DD
:40204000DE80BB681A78784B1B78DBB29A4240F0D680BB689B7803F07F03BB70BB78013BDBB21B017B70BB68DB7803F003033B70BB689B78DBB25BB2002B17DABA786B4943
:4020800013465B0013449B000B4401225A70B9783B78012B01D1072200E00D2263480B465B000B449B0003445A7116E0BA785F4913465B0013449B000B4400225A70B978EF
:4020C0003B78012B01D1052200E0092257480B465B000B449B0003445A717A78544B134401221A70BA78BB689988504813465B0013449B00034408330A461A80BA78BB68AC
:4021000099784A4813465B0013449B0003440A461A71BA78BB68D978444813465B0013449B0003440A461A70BA78404913465B0013449B000B440022DA707A783D4B13444E
:402140001946BA78394813465B0013449B00034408331B889BB21B0A9BB2DBB20B707A78354B13441946BA78304813465B0013449B00034408331B889BB2DBB20B707A78D7
:402180002E4B13441946BA78284813465B0013449B000344DB889BB2DBB20B707A78284B13441946BA78214813465B0013449B000344DB889BB21B0A9BB2DBB20B707A78EA
:4021C000204B13441946BA78184813465B0013449B000344DB889BB2DBB20B707A781A4B13441946BA78114813465B0013449B000344DB889BB21B0A9BB2DBB20B70BB68B5
:402200000833BB60FB7B0133FB73FA7BFB789A42FFF400AF1037BD4680BD00BFE781FF1F5882FF1FCC81FF1F04600040EC81FF1F0E6000400C6000400D600040866000403F
:4022400087600040846000408560004080B485B000AF0346FB71104B1B78DBB20F4ADB0013445B68FB60FB680833FB60FB681B78FA799A4202D30023FB6005E0FB79DB0038
:40228000FA6813445B68FB60FB6818461437BD465DF8047B704700BFC981FF1F7833000080B400AF054B1B78DBB2054ADB0013445B681846BD465DF8047B7047C981FF1FF0
:4022C0007833000080B584B000AF104B1B78DBB2013BDBB21846FFF7B9FFB860BB68002B0DD0BB685B681B79FB71FB790233DB00BA681344BB60BB685B68FB6001E0002345
:40230000FB60FB6818461037BD4680BDE781FF1F80B582B000AF0023FB71324B1B78DBB203F07F03BB71BB79013BDBB21B017B71BB79002B51D0BB79082B4ED8BA79B9791A
:4023400029480B465B000B449B0003449B78DBB243F00103D9B2244813465B0013449B0003440A469A70BA791F4913465B0013449B000B440022DA70BA79B9791A480B46E6
:402380005B000B449B0003445B78DBB243F00203D9B2154813465B0013449B0003440A465A70BA79104913465B0013449B000B441B79DBB2DBB25BB2002B05DA7A790B4B7B
:4023C00013448D221A7004E07A79084B134489221A70FEF7FFFF0346FB71FB7918460837BD4680BD04600040EC81FF1F0E60004080B582B000AF0023FB714A4B1B78DBB267
:4024000003F07F03BB71BB79013BDBB21B017B71BB79002B00F08180BB79082B7DD8BA79B97941480B465B000B449B0003449B78DBB223F00103D9B23B4813465B0013444F
:402440009B0003440A469A70BA79374913465B0013449B000B440022DA707A79334B13441A467979314B0B441B78DBB203F07F03DBB21370BA79B9792B480B465B000B44AF
:402480009B0003445B78DBB223F00203D9B2264813465B0013449B0003440A465A70BA79214913465B0013449B000B441B79DBB2DBB25BB2002B16DABA791B4913465B000F
:4024C00013449B000B445B78DBB2012B05D17A79174B13440C221A701BE07A79144B13440D221A7015E0BA790F4913465B0013449B000B445B78DBB2012B05D17A790C4B57
:40250000134408221A7004E07A79094B134409221A70FEF75FFF0346FB71FB7918460837BD4680BD04600040EC81FF1F0C6000400E60004080B584B000AF0123FB73164B6C
:402540001B78BB73154B1B78DBB2013BDBB21846FFF77CFEB860BB685B681B79FB71BA7BFB799A4202D2BB7B012B02D90023FB730CE0BB7BBA7B0A498A5CD1B2094AD154D3
:40258000BB7B094A1278D1B2054AD154FB7B18461037BD4680BD00BF04600040E781FF1F5882FF1FCC81FF1F0260004080B582B000AF0023FB710F4B1B78DBB2DBB25BB20F
:4025C000002B12DA0C4B1B78DBB2012B00D00CE00A4B0B4A5A600A4B1B781A46074B1A80FEF7D8FD0346FB7100BFFB7918460837BD4680BD0060004001600040D081FF1F8E
:4026000094330000000000000230800800F0058000BF013800467FF4FCAF7047EFF3108072B6704780F31088704700BFAFF3008080B483B000AF0346FB7101BE0C37BD46CD
:402640005DF8047B704700BF80B582B000AF0346FB80FB88044A127802FB03F31846FFF7D3FF0837BD4680BD1C81FF1F80B584B000AF03463960FB710F4B1B68FB60FB7976
:402680001F2B02D90020FFF7D3FFFB7903F01F0310339B00FA6813441B68BB60FB7903F01F0310339B00FA6813443A681A60BB6818461037BD4680BD08ED00E080B582B0CF
:4026C00000AF02460B46FA71BB71BB79072B02D90020FFF7ADFFFB791F2B02D90020FFF7A7FFFB7903F01F0303F1604303F56443BA795201D2B21A700837BD4680BD00BF12
:4027000080B582B000AFFFF789FF0346FB710B4B0A4A1278D2B242F00802D2B21A70084B074A1278D2B242F00802D2B21A70FB791846FFF777FF0837BD4680BDA043004072
:40274000B043004080B584B000AF78600B46FB700023FB7314E002E00120FFF775FF0D4B1B78DBB203F00103002BF5D0FB7B7A681344094A1278D2B21A70FB7B0133FB7377
:40278000FA7BFB789A42E6D3FB7B18461037BD4680BD00BF224700402047004080B485B000AF0346FB710723FB60134B1B78DBB203F00203002B16D0104BB6221A700F4B42
:4027C000E1221A700D4B0E221A700B4B1B78DBB203F00203002B03D1084BFA791A7004E00923FB6001E00423FB60FB6818461437BD465DF8047B70472247004020470040C5
:4028000080B582B000AF04237B60FFF707FF0346FB70124B1B78002B16D1104B01221A7000237B600E4B1B6803F00103002B0BD00B4B0B4A126822F001021A6000BF00BFBD
:4028400000BF084B01221A60FB781846FFF7EAFE7B6818460837BD4680BD00BFAC81FF1F04000840B081FF1F80B582B000AFFFF7D5FE0346FB710D4B00221A700C4B1B6823
:40288000012B0BD10B4B0B4A126842F001021A6000BF00BF00BF064B00221A60FB791846FFF7C0FE0837BD4680BD00BFAC81FF1FB081FF1F0400084080B582B000AF00232F
:4028C000FB710023BB711B4B1B78DBB203F00303012B02D0022B04D012E0174B1B78BB710EE0154B1B78DBB203F07F02134913465B0013449B000B4408339B78BB7100BF20
:402900000F4B1A68BB7913441B78022B04D0032B07D0012B07D007E0FEF76AF90346FB7102E000BF00E000BFFB7918460837BD4680BD00BF0060004004600040EC81FF1F81
:40294000E081FF1F70B50E4B0E4D0024ED1AAD101E46AC4204D056F8242090470134F8E700F048FD084D094B0024ED1AAD101E46AC4204D056F8242090470134F8E770BDDE
:402980000034000000340000083400000034000010B50023934203D0CC5CC4540133F9E710BD02440346934202D003F8011BFAE7704700000EB400B54FF402719CB0ADF88B
:4029C00014106FF00041049107914FF6FF711DABADF81610084953F8042B02900690086802A9019300F066F8029B00221A701CB05DF804EB03B070478481FF1F2DE9F0477B
:402A00008D688146AB420C4692461F4643D38B8913F4906F3DD0266809690222C1EB0608666906EB460696FBF2F608F101023A44964238BF16465B050FD5314600F01AFB59
:402A4000054698B121694246FFF7A2FFA38923F4906343F08003A38113E0324600F05EFB054670B94846216900F0C0FA0C23C9F80030A3894FF0FF3043F04003A381BDE826
:402A8000F087256166614544C8EB06062560A6603D46AF4200D23D462A462068514600F089FAA36800205B1BA36023681D442560BDE8F0872DE9F0439DB003938B890746F6
:402AC0001C060D4616460CD50B6953B9402100F0D1FA2860286110B90C233B60C7E040236B610023099320238DF8293030238DF82A3033461C4613F8012B1AB9B4EB060969
:402B00000FD002E0252AF5D1F8E73846294632464B46FFF773FF013000F0A480099B4B4409932378002B00F09D8000234FF0FF3204930793059206938DF853301A9304F1FD
:402B400001094D4E4C4630462178052200F024FA09F10109049B28B1861B0120B04003430493EEE7D90644BF20228DF853201A0744BF2B228DF8532022782A2A02D0079B13
:402B800021460EE0039A111D12680391002A01DB079204E0524243F002030792049301340AE00C4622780131303A092A03D80A2000FB0323F5E7079323782E2B19D1637839
:402BC0002A2B09D1039B02341A1D1B680392002BB8BF4FF0FF330BE0611C00230C4622780131303A092A03D80A2000FB0323F5E70593224E21783046032200F0CDF930B155
:402C0000861B4020B040049B01340343049321781B480622661C8DF8281000F0BDF988B1184B33B9039B073323F007030833039314E003AB0093384604A92A46124BAFF3CC
:402C4000008007E003AB0093384604A92A460E4B00F08EF8B0F1FF3F804603D0099B4344099346E7AB895B0601D4099801E04FF0FF301DB0BDE8F083BE330000C4330000AF
:402C8000C833000000000000FD2900002DE9F84315461F468A680B6906469A42A8BF13462B6091F843200C46DDF820800AB101332B602368990602D52B6802332B602368FD
:402CC00013F006091DD094F843302268003318BF012392061FD5E118302081F843005A1C94F845102244023382F8431013E03046394604F119020123C047013007D009F1A9
:402D00000109E2682B68D31A9945F0DBDBE74FF0FF30BDE8F8833046394604F14302C0470130F4D023682A6803F00603E168042B08BFC2EB01052369A2680CBF25EAE575C6
:402D400000259A42C4BFC3EB0203ED184FF00009A9450ADA3046394604F11A020123C0470130D4D009F10109F2E70020BDE8F8832DE9FF470E7E80466E2E0C4691469A4687
:402D80000C9D01F1430000F0A58011D8632E22D009D8002E00F0AF80582E40F0BF8081F845607B4A4FE0642E1ED0692E1CD0B5E0732E00F0A48009D86F2E2BD0702E40F0EB
:402DC000AD800B6843F020030B6038E0752E21D0782E34D0A2E02B6801F142071A1D1B682A6081F842309DE022682B6812F0800F03D01A1D2A601D6805E05106F9D51A1D18
:402E00002A60B3F90050002D39DA2D236D4284F8433034E022682B6812F0800F03D01A1D2A601D6804E05206F9D51A1D2A601D88237E574A6F2B14BF0A2308231BE07823F6
:402E4000544A84F845302368296813F0800F01F104062E6001D00D6802E05F06FBD50D88DE0744BF43F0200323601DB9236823F0200323601023002184F8431001E0444A2C
:402E80000A236668002EA66003DB216821F00401216005B96EB104F14201B5FBF3F603FB1655555D0F4601F801593546002EF4D100E00746082B0AD12368DD0707D56268B6
:402EC00023699A4203DC302307F8013C013FC01B20612CE009682B6811F0800F626904D0191D29601B681A6005E04906F8D5191D29601B681A8000232361074617E02B680A
:402F00001A1D2A601F68384600F03EF963682061984288BF23612369636005E004F1420784F8426001232361002384F84330CDF800A04046214603AA4B46FFF7A7FE01300D
:402F400002D14FF0FF301FE0404649463A462369D0470130F5D023689B0705D4E068039B9842B8BF18460FE00025E268039BD31A9D42F3DA4046494604F119020123D04753
:402F80000130DED00135F0E704B0BDE8F08700BFCF330000E033000010B5C9B202449042034605D01C7801308C42F8D1184610BD002010BD814270B501D300230EE08C1826
:402FC000A042FAD28518134613F1FF3305D351426618F65C2944CE54F6E770BD934203D0CC5CC4540133F9E770BD000030B500293CD051F8042C0B1F1D49002AB8BF9B1883
:403000000A680C4612B95A600B6030BD93420DD219685818904203D15A581144426819605A60236030BD994203D80A4651680029F9D1146815199D420AD11B682344D01868
:403040008842136012D10868034413604B680CE002D90C23036030BD18681C188C4203D10C684968204418605960536030BD00BFB881FF1F70B5CD1C25F0030508350C2DA6
:4030800038BF0C25002D06463FDB8D423DD3214B1C6818462146A1B10B685B1B0ED40B2B03D90B60CC18CD501FE08C4202D1626802601AE04B6863600C4616E00C4649689F
:4030C000E9E7154C23681BB9304600F04DF820602946304600F048F8431C014615D0C41C24F0030484420AD1256004F10B00231D20F00700C31A0BD05A42E25070BD3046D4
:40310000611A00F031F80130EED10C233360002070BD00BFB881FF1FB481FF1FF8B5064614460D4621B91146BDE8F840FFF7A2BF1AB9FFF75BFF2046F8BD00F02DF8A04253
:403140000ED230462146FFF795FF074650B129462246FFF71DFC30462946FFF747FF01E02846F8BD3846F8BD38B5064C002305460846236000F01AF8431C02D1236803B18B
:403180002B6038BD8482FF1F034613F8012B002AFBD1181A0138704751F8040C002802DA04390B581844043870470000094A136863B118446946884202D810601846704771
:4031C000054B0C221A604FF0FF307047034B1360EFE700BFBC81FF1F8482FF1F8882FF1F0000000025640A00005100407000C0510040100000000140001000140140000812
:4032000000400140000A004C01400002005001402000000030313233343536373839414243444546000000001201000202000008B40432F201000102800100000902430053
:40324000020101C032090400000102020103052400100104240202052406000105240100010705810308000A09040100020A0000040705820240000A0705030240000A008C
:40328000040309042C0343007900700072006500730073002000530065006D00690063006F006E0064007500630074006F007200100355005300420055004100520054002A
:4032C0003803430044004300200043006F006D006D0075006E00690063006100740069006F006E00200049006E0074006500720066006100630065002603430044004300AF
:4033000020004400610074006100200049006E00740065007200660061006300650000000203000000008103080002000100820240000A000100030240000A00020A000084
:40334000010000003C320000030000002433000000000000000000000000000000000000000000003C330000010000002832000001000000403300000100000068330000AA
:4033800012034D0053004600540031003000300001000000280000000001040001000000000000000001435955534200000030303030310000000000000000004300232DF3
:4033C000302B2000686C4C006566674546470030313233343536373839414243444546003031323334353637383961626364656600000000F8B500BFF8BC08BC9E467047AB
:403400004D000000B9010000F8B500BFF8BC08BC9E46704729000000283400000881FF1F80000000000100000000000000C2010000000800006CDC0280BB000030000000D9
:403440000000C05D0000000000000000000000000000000000000000000000000000000000000000BC33000000000000000000000000000000000000000000000000000040
:403480000000000000000000000000000000000000000000000000000000000000000000000000002481FF1F00000000000000000000000000000000000000000000000049
:4034C00000000000000000000000000000000000000000000000000000000000000000000000000000000000000000000000000000000000000000000000000000000000CC
:40350000000000000000000000000000000000000000000000000000000000000000000000000000000000000000000000000000000000000000000000000000000000008B
:40354000000000000000000000000000000000000000000000000000000000000000000000000000000000000000000000000000000000000000000000000000000000004B
:40358000000000000000000000000000000000000000000000000000000000000000000000000000000000000000000000000000000000000000000000000000000000000B
:020000040003F7
:0200000480007A
:4000000001450040015200400217014002190140034001400341014003420140034301400447014004480140024C0140015101407E027C40EA02EE0AEA02EE0A3381364072
:40004000CC709F01A640A7809F01A640A7809F01A640A78008080B040F40C20EAE40AF81EA40EE50AC08AF44002A00000000000000000000C00000000000000000000000E8
:400080000000000000000000000000000000000000000000000000000000000000000000000000000000000000000000000000000000000000000000000000000000000040
:4000C0000000000000000000000000000000000000000000000000000000000000000000000000000000000000000000000000000000000000000000000000000000000000
:4001000000000000000000000000000000000000000000000000000000000000000000000000000000000000000000000000000000000000000000000000000000000000BF
:40014000000000000000000000000000000000000000000000000000000000000000000000000000000000000000000000000000000000000000000000000000000000007F
:0200000490006A
:0400000000004005B7
:0200000490105A
:04000000BC90ACAF55
:0200000490303A
:0200000096B5B3
:0200000490402A
:4000000000000000000000000000000000000000000000000000000000000000000000000000000000000000000000000000000000000000000000000000000000000000C0
:400040000000000000000000000000000000000000000000000000000000000000000000000000000000000000000000000000000000000000000000000000000000000080
:400080000000000000000000000000000000000000000000000000000000000000000000000000000000000000000000000000000000000000000000000000000000000040
:4000C0000000000000000000000000000000000000000000000000000000000000000000000000000000000000000000000000000000000000000000000000000000000000
:0200000490501A
:0C00000000012E12306900012E25C71EE1
:00000001FF