:40000000020366008F828E83E0540100000070F82278FFE4F6D8FD020423BB010689828A83E0225002E722BBFE02E32289828A83E49322BB010689828A83F0225002F72226
:40004000BBFE01F322C5F0F8A3E028F0C5F0F8E582158270021583E038F022BB010A89828A83F0E5F0A3F0225006F709A7F01922BBFE06F3E5F009F31922EF2BFFEE3AFE0D
:40008000ED39FDEC38FC22E88FF0A4CC8BF0A42CFCE98EF0A42CFC8AF0EDA42CFCEA8EF0A4CDA8F08BF0A42DCC3825F0FDE98FF0A42CCD35F0FCEB8EF0A4FEA9F0EB8FF050
:4000C000A4CFC5F02ECD39FEE43CFCEAA42DCE35F0FDE43CFC2275F008758200EF2FFFEE33FECD33CDCC33CCC58233C5829BED9AEC99E58298400CF582EE9BFEED9AFDEC48
:4001000099FC0FD5F0D6E4CEFBE4CDFAE4CCF9A88222B800C1B90059BA002DEC8BF084CFCECDFCE5F0CBF97818EF2FFFEE33FEED33FDEC33FCEB33FB10D703994004EB996F
:40014000FB0FD8E5E4F9FA227818EF2FFFEE33FEED33FDEC33FCC933C910D7059BE99A4007EC9BFCE99AF90FD8E0E4C9FAE4CCFB2275F010EF2FFFEE33FEED33FDCC33CCD2
:40018000C833C810D7079BEC9AE899400AED9BFDEC9AFCE899F80FD5F0DAE4CDFBE4CCFAE4C8F922EF4BFFEE4AFEED49FDEC48FC22E8600FECC313FCED13FDEE13FEEF1350
:4001C000FFD8F122E8600FEFC333FFEE33FEED33FDEC33FCD8F122E0FCA3E0FDA3E0FEA3E0FF22E0F8A3E0F9A3E0FAA3E0FB22ECF0A3EDF0A3EEF0A3EFF022E0FBA3E0FACD
:40020000A3E0F922EBF0A3EAF0A3E9F022D083D082F8E4937012740193700DA3A393F8740193F5828883E4737402936860EFA3A3A380DFE5092582F582E5083583F583B577
:4002400008048582092210AF06858209F50822858209F508D2AF22EC8EF0A4CCC5F0CCCDF8EFA4CEC5F02DFDE43CFCE8A42EC8C5F03DFDE43CFCEFA4FFE5F028FEE43DFDE8
:40028000E43CFC22E709F608DFFA8046E709F208DFFA803E88828C83E709F0A3DFFA8032E309F608DFFA806EE309F208DFFA806688828C83E309F0A3DFFA805A89828A8312
:4002C000E0A3F608DFFA804E89828A83E0A3F208DFFA804280D280FA80C680D4805580F28029801080A680EA809A80A880DA80E280CA802988848C8589828A83E493A305EB
:4003000086F0A30586DFF5DEF3800B89828A83E493A3F608DFF9ECFAA9F0EDFB2288848C8589828A83E0A30586F0A30586DFF6DEF480E389828A83E493A3F208DFF980D693
:4003400088F0EF60010E4E60CD88F0ED2402B4040050C3F582EB2402B4040050B923234582239002D47375930078007583467582E8E04401F0009046ECE0F99046FAE0FA8D
:40038000B903225420B40012B8001AEA901FFFF07401901FFEF09046F6F0901FFEE06005901FFFE0FA90480074C0F07581099076BCE4F0A3F0A3F0A3F0907010F090701920
:4003C000F0907020F09076007410F0907604E4F0A3F0A3F0A3F09078007800087400F0A37408F0E8B8040274FFA3F0A37422F0A374BCF0A37476F0A3E4F0A3E81475F00859
:40040000A4F0A3B804D59070107401F0907014F07E707F18120004907010F0EA900068F002001175081F7509FD1205DE02046A020953E493A3F8E493A34003F68001F20841
:40044000DFF48029E493A3F85407240CC8C333C4540F4420C8834004F456800146F6DFE4800B010204081020408090103DE47E019360BCA3FF543F30E509541FFEE493A36A
:4004800060010ECF54C025E060A840B8E493A3FAE493A3F8E493A3C8C582C8CAC583CAF0A3C8C582C8CAC583CADFE9DEE780BE905120E0FFEF5480FFEFF0905122E0FFEF8F
:4004C00054F0FF90005EEFF090005EE0FFEF440FFF905122EFF0905123E0FFEF54F0FF90005EEFF090005EE0FF905123EFF0905124E0FFEF54F0FF90005EEFF090005EE0B9
:40050000FF905124EFF0905120E0FFEF54DFFFEFF0905120E0FFEF4440FFEFF07F007E00121010905120E0FFEF4410FFEFF07F017E00121010905121E0FF90005EEFF09029
:400540005120E0FFEF54EFFFEFF07F007E0012101090005EE0FFEF5408FF90005EEFF0905120E0FFEF4410FFEFF07F017E00121010905120E0FFEF54EFFFEFF090005EE019
:40058000FFEF7098905120E0FFEF54BFFFEFF0905120E0FFEF5480FFEFF0905122E0FFEF54F0FFEFF0905123E0FFEF54F0FF90005EEFF090005EE0FFEF440FFF905123EF2E
:4005C000F0905124E0FFEF54F0FF90005EEFF090005EE0FFEF440FFF905124EFF0227B007A4679E8121168EF4405FD7B007A4679E81211741207A97B017A50790312116876
:40060000EF4402FD7B017A5079031211747B017A507913121168EF4402FD7B017A5079131211749043A0E0FFEF4440FF9043A0EFF09043C2E0FFEF4410FF9043C2EFF07B7C
:40064000087A007900C003C002C0017B007A517922900048120204D001D002D0037F087E00120F7D904322E0FFEF4408FF904322EFF09046ECE0FFEFC394055006904689CC
:40068000743AF090480074C0F01206C69048007480F0120F477B007A4379A0C003C002C0017B007A4379B0900048120204D001D002D0037F0E7E00120F7D9043B0E0FFEF46
:4006C00054FDFFEFF0229043007402F09040007408F09042007403F07B0C7A0179081211689046A1EFF07B007A4279227D087C0012113F7B007A4279207D517C1212113FD4
:40070000900047E4F07F197E007D007C009000431201EF9000431201D7D3EF9400EE9400404E900047E0FFEF64036044904225E0FFEF5401FF7E00900047E0FEEE25E0FE1A
:40074000EE4FFFEF5403FF900047EFF07FE07E017D007C00120E009000431201D77BFF7AFF79FF78FF12007A9000431201EF80A39000431201D7EF4E70057F0312112D7B6C
:40078000007A4079047D007C0112113F9040047407F0904006E4F09040087448F0904004E4F09040017402F0227F007E007D007C009000721201EF9076007410F0907010B4
:4007C0007401F0907019E4F07B027A7879007D707C001211419078027401F090780374A3F07B027A787904C003C002C0017BFF7A117995AF01AE02AD037C00EF54FFFFEE71
:4008000054FFFEED5400FDEC5400FCAD07AC06D001D002D0031211417B027A7879067D087C781211417B027A7679047D107C001211417B027A7679067D007C0012114190B2
:4008400070297405F09070397409F09070147401F0907018E0FFEF5401FF7E00EF4E70F1907028E0FFEF5401FF7E00EF4E70F1907038E0FFEF5401FF7E00EF4E70F1229073
:4008800000461201EF900056740AF0900056E0FF744B2FF582E43400F583E4F0900056E014F09000461201D7C3EF940AEE940040577B0A7A00790078009000461201D71259
:4008C0000112AC00AD01AE02AF03EF2430FF90004AEFF090004AE0FF900056E0FE744B2EF582E43400F583EFF09000461201D77B0A7A00790078001201129000461201EF31
:40090000900056E014F0809A7B0A7A00790078009000461201D7120112AC00AD01AE02AF03EF2430FF90004AEFF090004AE0FF900056E0FE744B2EF582E43400F583EFF0F7
:40094000900056E0FF744B2FF9E43400FA7B01120D77221211037F327E007D007C00120B9F7B017A007944120DC5900043EFF07D007F00120D207BFF7A1079BB120D779099
:400980000044E0FEA3E0FFC3EE9400400B7BFF7A1079C3120D7780277BFF7A1079C5120D77900044E0FEA3E0FFEFF4FFEEF4FEEF2401FFEE3400FE900044EEF0A3EFF090C1
:4009C0000044E0FEA3E0FFE4FCFD12087F7BFF7A1079C7120D777F0712114E7BFF7A1079C9120D777D007F01120D207BFF7A1079CB120D77900043E0FF1210690209562256
:400A0000900051120204904722E0FFEF5402FF7E00EF4E706D904722E0FFEF1313543FFFEF70577B017A0079547D02120C05EF6402703F900054E0FFEFB40115900055E02A
:400A4000FF7E009000511201FBEE8FF012005B801A900055E0FF7E00C3E49FFFE49EFE9000511201FBEE8FF012005B900056E4F0801690005674FFF0800E9000567407F04E
:400A800080069000567410F0900056E0FFEF640760031210ED900056E0FF227F287E007D007C00120B9F7F03120E4B7F057E007D007C00120B9F7F03120E4B7F0F7E007DEA
:400AC000007C00120B9F7F03120E4B7F017E007D007C00120B9F7F02120E4B7F057E007D007C00120B9F7F06120F117F0E120F117F2C120F117F08120F117F01120F117F3E
:400B00000C120F117F03120F117F057E007D007C00120B9F7BFF7A127905120E942290004B120204120FB1900050EFF0900050E0FFEF6407706390004E741FF0A37440F09A
:400B400090004EE0FEA3E0FFD3EF9400EE94004048900050E0FFEF64076013904722E0FFEF5402FF7E00EF4E6004802D8017900050E0FFEFB4070E90004B1201FB120A0050
:400B8000900050EFF07F0A7E0012101090004E74FF75F0F612004580A7900050E0FF2290FFFC1202331201EF8508838509821201D7D3EF9400EE9480402F9000691201D7AA
:400BC000120E00850883850982C083C0821201D7EF2400FFEE3480FEED34FFFDEC34FFFCD082D0831201EF80BF90005F1201D78508838509821201E3120087120E0090003E
:400C0000041202332290005712020490005AEDF090005BE4F090005AE0FF90005BE0FEEEC39F5040904722E0FFEF5401FF7E00EF4E6003D38001C340097F017E0012101087
:400C400080E2904720E0FF9000571201FB90005BE0FEE92EF9E43AFAEF12003390005BE004F080B190005BE0FF2290005EEFF0905120E0FFEF4420FFEFF0905120E0FFEF99
:400C800054BFFFEFF07F007E00121010905120E0FFEF54F0FFEFF0905120C083C082E0FF90005EE0FEEE4410FEEF4EFFD082D083EFF07F017E00121010905120E0FFEF549F
:400CC000EFFFEFF022900052EFF09000537407F0904722E0FFEF5402FF7E00EF4E603590472074B6F090472074E1F0904720740EF0904722E0FFEF5402FF7E00EF4E700C81
:400D0000900052E0FF904720EFF0800E9000537409F080069000537404F0900053E0FF22900046EFF0900047EDF0900046E0FFEF12020D0D43000D50010D5D020D6A0300C7
:400D4000000D76900047E0FFEF2480FF120F1122900047E0FFEF24C0FF120F1122900047E0FFEF2494FF120F1122900047E0FFEF24D4FF120F112290005712020490005AEF
:400D80007401F09000571201FB12001AFF90005BEFF090005BE0FFEF602A90005BE0FF120EDB9000571201FB90005AE0FFE92FF9E43AFA12001AFF90005BEFF090005AE036
:400DC00004F080CE2290004612020490004A7402F090004AE0FFEF601E9000461201FB120B1E900049EFF0900049E0FFEF700890004AE014F080DA900049E0FF2200000053
:400E0000EC4D4E700D78FCEF24E950032840FD22000078C5904800E0C403035403900E479325E0240FF404FBEF28FF78FFEE38FEED38FDEC38FC50D7EF2BFFEE38FEED382F
:400E4000FDEC38FC40F2220502030490004CEFF0905120E0FFEF549FFFEFF0905120E0FFEF54F0FFEFF0905120C083C082E0FF90004CE0FEEE4410FEEF4EFFD082D083EF78
:400E8000F07F017E00121010905120E0FFEF54EFFFEFF0229000461202041204AF7F40120F11900049E4F0900049E0FFEFC3944050209000461201FB900049E0FFE92FF954
:400EC000E43AFA12001AFF120EDB900049E004F080D51204AF7F80120F112290005CEFF01204AF90005CE0FFEFC4540FFF90005DEFF090005DE0FF120C6A90005CE0FFEF50
:400F0000540FFF90005DEFF090005DE0FF120C6A2290004AEFF01204AF90004AE0FFEFC4540FFF90004BEFF090004BE0FF120E4B90004AE0FFEF540FFF90004BEFF090008E
:400F40004BE0FF120E4B227B0C7A0179CF121168900043EFF0900043E0FFEF5407FF90586EEFF0900043E0FFEFC4540FFFEF540FFF90586FEFF09058767444F02275860092
:400F8000EF4E6027EF60010E759300900048E0F595A3E0F585A3E0F5848B938A838982E0A30586F0A31586DFF6DEF4E4F593F5952290005174FFF0121094120FE0EF70142D
:400FC0007F01120CC5EFB407069000517407F01210ED80069000517404F0900051E0FF229000527404F0121118900053EFF0900078E0FFEF700B9000787401F0900052E407
:40100000F0900053E0FF1210D5900052E0FF2200EEFA900063E0F88FF0A4FFAEF0E88AF0A42EFEE5F03400FDEF24C9FF78FFEE38FEED38FDE438FC5003020E00224100778C
:401040000041007600440064016E360044005F00005DC0410063184400692EE000004100780043006D00000000900046EFF0900046E0FFEFC4540FFFEF90124593FF1211C2
:401080004E900046E0FFEF540FFFEF90124593FF12114E22121118900052EFF09043A0E0FFEF4408FFEFF09043B0E0FFEF4408FFEFF0900052E0FF1210D52254656D70206F
:4010C0003D20002B002D0020004300537461747573203D2000EF54016004D2AF8002C2AFEF5402FF9044F4E054FD4FF022121118900057EFF0900078E4F0900057E0FF1268
:4011000010D522900076E0FFEF7009120A9B9000767401F012115C229044F4E0F84402F0E85402FF10AF012274014FFF22900048EFF0900048E0FF900048EFF080FE228B6E
:40114000938A838982EDF0A3ECF075930022900047EFF0900047E0FF120EDB227F0C120F119000777401F0228B938A838982E0759300FF228B938A838982EDF075930022EE
:40118000010000000000000001000000000001000100000001000823021180760800082303118876100005230411907020000523FE11907030002022060072510000402270
:4011C000070072513000102208007251C0001022FE007251F00FFF220A007200000001220B00720F800800220C007214000A00220D007240000200220E00724C00002022A1
:40120000FE00725000000E0808080E0000000A0A0404040000000E0A0E08080000000E0A0C0A0A0000000E080C080E0000000E080E020E0000000E080E020E00000C12125C
:401240000C000000003031323334353637383941424344454600000000000000000000000000000000000000000000000000000000000000000000000000000000000000C0
:40128000000000000000000000000000000000000000000000000000000000000000000000000000000000000000000000000000000000000000000000000000000000002E
:4012C00000000000000000000000000000000000000000000000000000000000000000000000000000000000000000000000000000000000000000000000000000000000EE
:4013000000000000000000000000000000000000000000000000000000000000000000000000000000000000000000000000000000000000000000000000000000000000AD
:40134000000000000000000000000000000000000000000000000000000000000000000000000000000000000000000000000000000000000000000000000000000000006D
:0200000480007A
:40000000007F7F00000000000000000000000000000000000000000000000000000000000000000000000000000000000000000000000000000000000000000000000000C2
:400040000000000000000000000000000000000000000000000000000000000000000000000000000000000000000000000000000000000000000000000000000000000080
:400080000000000000000000000000000000000000000000000000000000000000000000000000000000000000000000000000000000000000000000000000000000000040
:4000C0000000000000000000000000000000000000000000000000000000000000000000000000000000000000000000000000000000000000000000000000000000000000
:4001000000000000000000000000000000000000000000000000000000000000000000000000000000000000000000000000000000000000000000000000000000000000BF
:0200000490006A
:0400000000004005B7
:0200000490105A
:04000000BC90ACAF55
:0200000490303A
:02000000991E47
:0200000490501A
:0C00000000011E02806903011E0B19871D
:0200000490402A
:4000000000000000000000000000000000000000000000000000000000000000000000000000000000000000000000000000000000000000000000000000000000000000C0
:00000001FF
